S0130000616E737465756572756E672E7372656360
S11300000C9456000C9473000C9473000C947300BD
S11300100C9473000C9473000C9473000C94730090
S11300200C9473000C9462090C9473000C94730088
S11300300C9473000C9473000C9473000C94730070
S11300400C9473000C9473000C9473000C94730060
S11300500C94E2020C94AF050C9473000C9473009E
S11300600C9473000C946B050C9473000C94730043
S11300700C9473000C949A090C9473000C94730000
S11300800C94D1070C9473000C9473000C947300BB
S11300900C9473000C9473000C9473000C94730010
S11300A00C9473000C9473000C94730011241FBE01
S11300B0CFEFDAE0DEBFCDBF11E0A0E0B1E0EEE2C9
S11300C0FFE102C005900D92A432B107D9F721E0F7
S11300D0A4E2B1E001C01D92AD37B207E1F70E947E
S11300E05A070C94950F0C940000E1E8F0E080812D
S11300F08160808380818260808380818B7F808324
S1130100EFE6F0E0808181608083089510924C01D5
S1130110E4E8F0E08081918190934E0180934D0159
S11301201182108208958F929F92AF92BF92CF92C4
S1130130DF92EF92FF9280914C018823F9F088E9D5
S11301409AE390934E0180934D0110922C011092EA
S11301502D0110922E0110922F0110925D01109228
S11301605E0110925F01109260011092550110928D
S113017056011092570110925801CFC080914D0141
S113018090914E01889708F4C8C080914D019091D8
S11301904E018C389C4330F08CE89CE390934E01E4
S11301A080934D0120914D0130914E0180910A01BF
S11301B090910B01289FB001299F700D389F700DFD
S11301C0112480E090E00E94050B60935501709328
S11301D05601809357019093580160915501709195
S11301E05601809157019091580120E030E048EC8D
S11301F052E40E94640A60935501709356018093FF
S11302005701909358018090550190905601A09009
S11302105701B09058016091080170910901072EAF
S1130220000C880B990B0E94070B6B017C0120E0EA
S113023030E040EC50E4C501B4010E94FD0B9B0189
S1130240AC01C701B6010E94FD0B60935901709384
S11302505A0180935B0190935C0160915901709104
S11302605A0180915B0190915C0120E030E040E212
S113027051E40E94640A6093590170935A01809377
S11302805B0190935C012091590130915A01409196
S11302905B0150915C0160E070E08AE794E40E94A5
S11302A0640A60935D0170935E0180935F01909393
S11302B0600160915D0170915E0180915F01909198
S11302C0600120E030E040E752E40E94FD0B6093BF
S11302D02C0170932D0180932E0190932F01809116
S11302E02401E82FF0E040912C0150912D01609100
S11302F02E0170912F01EE0FFF1FEE0FFF1FEE5C1A
S1130300FE4F40835183628373838F5F833018F47D
S11303108093240102C010922401FF90EF90DF909B
S1130320CF90BF90AF909F908F9008958F929F929F
S1130330AF92BF92CF92DF92EF92FF9280914C01E5
S1130340882329F110924E0110924D0110923E0122
S113035010923F01109240011092410110922C0121
S113036010922D0110922E0110922F0110925D0116
S113037010925E0110925F0110926001109255017B
S113038010925601109257011092580186C0609144
S11303902C0170912D0180912E0190912F010E94CA
S11303A0D60A709331016093300160915D017091C0
S11303B05E0180915F0190916001809000019090B6
S11303C00101A0900201B0900301C0900401D090FB
S11303D00501E0900601F0900701A50194010E9437
S11303E0FD0B23EC35EF48E450E40E94FD0BA7011C
S11303F096010E94640A26E636E646E650E40E9428
S1130400FD0B60934F0170935001809351019093C1
S1130410520120915D0130915E0140915F01509144
S11304206001C501B4010E94FD0B23EC35EF48E4E3
S113043050E40E94FD0BA70196010E94640A26E67F
S113044036E646E650E40E94FD0B60934F0170933C
S11304505001809351019093520160914F0170912A
S1130460500180915101909152010E94480A609379
S11304703E0170933F01809340019093410160914C
S11304803E0170913F0180914001909141010E9491
S1130490D60A7093540160935301FF90EF90DF905C
S11304A0CF90BF90AF909F908F900895CF93DF939C
S11304B0C2E4D1E085E0EDE0F1E0DE0101900D92CF
S11304C08A95E1F78BE80E94E506CE010E941E079B
S11304D080913001909131019F938F9382E191E05B
S11304E09F938F93DF93CF930E94AB0C8AE80E9473
S11304F0E506CE010E941E070F900F900F900F90FB
S11305000F900F90DF91CF910895CF93DF93C2E4C2
S1130510D1E085E0EDE0F1E0DE0101900D928A95F5
S1130520E1F78BEC0E94E506CE010E941E07809144
S11305305301909154019F938F9382E191E09F9393
S11305408F93DF93CF930E94AB0C8AEC0E94E50655
S1130550CE010E941E070F900F900F900F900F90E6
S11305600F90DF91CF91089510922C0110922D01DC
S113057010922E0110922F0110923E0110923F0111
S113058010924001109241010895CF9360912C0183
S113059070912D0180912E0190912F01C1E020E0F6
S11305A030E0A9010E945F0A8111C0E08C2FCF9135
S11305B0089560912C0170912D0180912E019091EC
S11305C02F0108951F920F920FB60F9211248F934B
S11305D09F9381E080934C018CE89CE390934E01BF
S11305E080934D0110923E0110923F011092400100
S11305F010924101109254011092530110922C0157
S113060010922D0110922E0110922F01109231019F
S11306101092300110925D0110925E0110925F0100
S113062010926001109255011092560110925701D8
S1130630109258019F918F910F900FBE0F901F90B1
S11306401895A0E0B0E0BC01CD0160547C4981095B
S1130650910920EA30E040E050E00E946A0C822FC9
S113066090E008952F923F924F925F926F927F9203
S11306708F929F92AF92BF92CF92DF92EF92FF92AE
S11306800F931F93CF93DF93382E0E94D9026B01EF
S11306907C0120E030E44CE955E40E94F80B882307
S11306A00CF00AC120E030E044ED52E4C701B60189
S11306B00E94640A4B015C010E9430058C010E9477
S11306C04905EC010E946205282E20E030E040E25A
S11306D052E4C501B4010E94F80B88235CF0013E8A
S11306E01B4A40F40F2E812C912CF0E2AF2EF2E441
S11306F0BF2EF02D60912C0170912D0180912E015F
S113070090912F0120E030E04AEF54E40E945F0A08
S11307101816BCF060912C0170912D0180912E016E
S113072090912F0128E73CE942E25DE30E94FD0B32
S113073020E030E040EA51E40E94DC092B013C0156
S113074008C00F2E412C512CF0E26F2EF1E47F2EC5
S1130750F02DC13F8AE0D80758F42AE939E949E580
S11307605FE3C301B2010E94FD0B2B013C011CC0DD
S1130770C5358BE0D80758F426E636E646E65FE34F
S1130780C301B2010E94FD0B2B013C010DC0C93B0A
S1130790DB4050F423E333E343E75FE3C301B201F7
S11307A00E94FD0B2B013C0187E7821550F42DECD0
S11307B03CEC4CE45EE3C301B2010E94FD0B2B014F
S11307C03C0120E030E0A901C701B6010E945F0AA4
S11307D0811104C084E1831508F469C020E030E08D
S11307E040EA50E4C501B4010E94FD0B0E94D60A00
S11307F0C62F70E080E090E00E94070B6B017C0143
S1130800A301920160E070E08FE793E40E94DB09AA
S11308104B015C019B01AC01C701B6010E94F80BBE
S1130820882334F0C501B4010E94D60AC62F0BC038
S113083020E030E040E251E4C701B6010E945F0AC3
S113084018160CF0CAE0E32CF12C0C2F10E0C301B5
S1130850B2010E94D60AC801860F911D8E159F050C
S113086024F42F9A3C2E360E44C0B801110F880B85
S1130870990B0E94070B20E030E040E251E40E9413
S1130880DB094B015C01B701FF0C880B990B0E943B
S1130890070BA50194010E945F0A882334F4C50163
S11308A0B4010E94D60A362E24C02F9822C00F2EDF
S11308B0F4E13F2EF02D1DC00E9430058C010E94F2
S11308C04905EC010E946205282E0F2EF3EE8F2EAF
S11308D0FDEA9F2EFCE3AF2EF2E4BF2EF02D0F2E87
S11308E0C12CF0E4DF2EFCE9EF2EF5E4FF2EF02D11
S11308F0F6CE832DDF91CF911F910F91FF90EF9052
S1130900DF90CF90BF90AF909F908F907F906F902B
S11309105F904F903F902F9008951F928F9382E1A4
S113092091E09F938F9381E691E09F938F930E9430
S1130930AB0C80EC0E94E50681E691E00E941E0764
S11309400F900F900F900F900F900F9008951092AA
S1130950CD0087E68093CC00A9ECB0E08C91806157
S11309608C938C9180688C938C9188608C93EAEC46
S1130970F0E080818F7B808380818F77808380818A
S11309808F7E80838081806280838081877F808363
S11309908081826080838081846080838C918B7F5E
S11309A08C9380818083089584B58F7B84BD84B5C6
S11309B08F7784BD84B58E7F84BD84B58D7F84BDDF
S11309C085B5877F85BD85B58E7F85BD85B58D7FD2
S11309D085BD85B5846085BD84E687BDEEE6F0E01F
S11309E08081826080830895EFE6F1E080818093C6
S11309F06E01818190E090936D0180936C0122815E
S1130A0080916C0190916D01922B90936D01809374
S1130A106C01838190E090932601809325012481C9
S1130A208091250190912601922B90932601809329
S1130A3025010895A7E6B1E08C91EFE6F1E080830B
S1130A4011968C911197818312968C9112978283BF
S1130A5013968C911397838314968C9184830895B1
S1130A60809125019091260180349C4960F0809109
S1130A70250190912601813C9A4D40F480912501F5
S1130A8090912601089580E89BEB089580E89BEB04
S1130A90089580916C0190916D01803F9A4060F0BF
S1130AA080916C0190916D01893D9E4040F480914C
S1130AB06C0190916D01089584EE9CE0089584EE9C
S1130AC09CE0089580916E01813A18F480916E0142
S1130AD0089584E108951F920F920FB60F92112486
S1130AE02F933F934F935F936F937F938F939F9332
S1130AF0AF93BF93EF93FF9380912901813021F449
S1130B0080912701853020F4809128018823B1F059
S1130B101092270116BCE0912801F0E08091CE00EC
S1130B20E959FE4F808380912801843011F40E949A
S1130B301A05809128018F5F80932801FF91EF911E
S1130B40BF91AF919F918F917F916F915F914F91E1
S1130B503F912F910F900FBE0F901F9018951F92E9
S1130B600F920FB60F9211242F933F934F935F93DD
S1130B706F937F938F939F93AF93BF93EF93FF9361
S1130B8016BC81E0809329011092280180912701ED
S1130B908F5F80932701823011F40E94F4048091C6
S1130BA027018B3F18F08AEF80932701FF91EF9183
S1130BB0BF91AF919F918F917F916F915F914F9171
S1130BC03F912F910F900FBE0F901F901895009793
S1130BD069F020E030E0EFE9FFE03197F1F700C081
S1130BE000002F5F3F4F82179307A9F70895899A52
S1130BF08998089582E390E00E94E70589982898EF
S1130C0081B38F7381BB81B3806381BB0E94F7057D
S1130C108FE39CE90197F1F700C0000081B38F7363
S1130C2081BB81B3806381BB0E94F7058FE39CE99C
S1130C300197F1F700C0000081B38F7381BB81B3CA
S1130C40806381BB0E94F7058FE39CE90197F1F76C
S1130C5000C0000081B38F7281BB8D9A0E94F7059A
S1130C608FE39CE90197F1F700C0000081B38F7214
S1130C7081BB8D9A0E94F7058FE39CE90197F1F7F8
S1130C8000C000008F9A81B38F7881BB0E94F70562
S1130C908FE39CE90197F1F700C0000081B38F70E6
S1130CA081BB0E94F7058FE39CE90197F1F700C02F
S1130CB000008F9A81B38F7881BB0E94F7058FE380
S1130CC09CE90197F1F700C0000081B38F7081BBEC
S1130CD00E94F7058FE39CE90197F1F700C000003B
S1130CE081B38F7181BB8C9A0E94F7058FE39CE9D5
S1130CF00197F1F700C0000081B38F7081BB0E949F
S1130D00F7058FE39CE90197F1F700C0000081B378
S1130D108F7381BB81B3806381BB0E94F7058FE32E
S1130D209CE90197F1F700C0000081B38F7081BB8B
S1130D300E94F7058FE39CE90197F1F700C00000DA
S1130D4081B3806F81BB0E94F7058FE39CE9019713
S1130D50F1F700C000000895CF93C82F289A882384
S1130D6014F48F9A01C08F98C6FF02C08E9A01C0F6
S1130D708E98C5FF02C08D9A01C08D98C4FF02C031
S1130D808C9A01C08C980E94F70581E090E00E9443
S1130D90E705C3FF02C08F9A01C08F98C2FF02C04B
S1130DA08E9A01C08E98C1FF02C08D9A01C08D98A1
S1130DB0C0FF02C08C9A01C08C980E94F70581E0A4
S1130DC090E00E94E705CF910895CF93C82F28980B
S1130DD0882314F48F9A01C08F98C6FF02C08E9A9C
S1130DE001C08E98C5FF02C08D9A01C08D98C4FFC2
S1130DF002C08C9A01C08C980E94F70581E090E0B3
S1130E000E94E705C3FF02C08F9A01C08F98C2FFFA
S1130E1002C08E9A01C08E98C1FF02C08D9A01C093
S1130E208D98C0FF02C08C9A01C08C980E94F7056F
S1130E3081E090E00E94E705CF910895CF93DF937E
S1130E40EC018881882331F021960E94AC068991B7
S1130E508111FBCFDF91CF91089580E80E94E506D0
S1130E6085E191E00E941E078FE80E94E5068BE170
S1130E7091E00E941E078FEC0E94E5068FE191E04D
S1130E800E941E070895E1E9F0E08081816080837B
S1130E9080818260808380818B7F8083E1E7F0E0C2
S1130EA080818260808384EC99E0909399008093A0
S1130EB098000895E1E6F0E080E88083108285B729
S1130EC0806885BF85B7806885BF3F9A3E9A269A19
S1130ED0259A579A569A21982298239829982A98BD
S1130EE02B9824982C9A6E9A76988098209A819AB6
S1130EF0879A869A859A849A5A9A549A5098589AB4
S1130F00279A0E942D080E94EC070E944A080E941A
S1130F1075000E94A7040E94D4040E9443070E9403
S1130F20FA058CE00E94E5060E947E0878940E94EF
S1130F302D070E945F09809374018111FFCF2FEF69
S1130F4087EA91E6215080409040E1F700C000001C
S1130F5076980E94B40210922B0180912B018A3062
S1130F60E0F30E94300590937801809377010E940A
S1130F70960180917701909178010E9421038093DA
S1130F802A010E948D040E94620590E090937601EC
S1130F90809375010E9456020E94850210922B01D3
S1130FA0DCCF1F920F920FB60F9211248F931092E1
S1130FB095001092940080912B01893110F01092C9
S1130FC02B0180912B018F5F80932B018F910F90C8
S1130FD00FBE0F901F901895CF93DF93E1ECF0E0D4
S1130FE080818E7F808380818D7F808380818460F7
S1130FF080838081877F8083A0ECB0E08C918260C5
S11310008C93C3ECD0E088818E7F88838881826052
S113101088838C9180648C938C918F778C938C9142
S113102080618C938C918F7D8C93A2ECB0E08C9139
S113103084608C938C91877F8C9380818F7E808356
S113104080818F7D80838FEF8093D1001092C400C4
S11310508093D400DF91CF910895E8E6F0E0808199
S113106081608083EBE6F0E0808182608083808110
S113107084608083808188608083808180618083B4
S1131080E9E6F0E080818160808380818D7F8083C8
S1131090E89A0895ECE7F0E08081806480838081A1
S11310A08F77808380818062808380818E7F80833C
S11310B080818D7F808380818B7F80838081877F07
S11310C0808380818F7E8083EBE7F0E080818F7D59
S11310D08083EAE7F0E08081806880838081886093
S11310E0808380818E7F8083808182608083808101
S11310F084608083808180648083089583B18E704E
S1131100869580937B010E94C502882349F01C992F
S113111004C081E080930C0108C010920C016AC0E5
S113112080910C01882309F465C080917B01833090
S113113049F128F48130C1F0823091F1089585306D
S113114029F008F449C08630C9F10895E4ECF0E0D0
S1131150108285B18F7985B98BB18F7380648BB917
S11311608081836080830895E4ECF0E0108288B18C
S11311708F7388B98BB18F7380648BB980818C60D5
S113118080830895E4ECF0E010828BB18F738BB907
S113119088B18F73806488B980818C60808308955E
S11311A0E4ECF0E0108285B18F7985B988B18F7352
S11311B0806488B98081806380830895E4ECF0E0E2
S11311C0108288B18F7388B985B18F79806285B9AF
S11311D08081806380830895E4ECF0E010828BB119
S11311E08F738BB985B18F79806285B98081836073
S11311F08083089580917B01833049F128F4813004
S1131200C1F0823091F10895853029F008F449C085
S11312108630C9F10895E4ECF0E0108285B18F794D
S113122085B988B18F73806488B980818063808335
S11312300895E4ECF0E0108288B18F7388B985B129
S11312408F79806285B98081806380830895E4EC1E
S1131250F0E010828BB18F738BB985B18F79806286
S113126085B98081836080830895E4ECF0E0108286
S113127085B18F7985B98BB18F7380648BB9808187
S1131280836080830895E4ECF0E0108288B18F736A
S113129088B98BB18F7380648BB980818C608083B3
S11312A00895E4ECF0E010828BB18F738BB988B1B0
S11312B08F73806488B980818C6080830895809165
S11312C07A0108951F920F920FB60F9211242F9353
S11312D03F934F935F936F937F938F939F93AF93BA
S11312E0BF93EF93FF930E9486000E947E080E94A2
S11312F093000E94D90220E030E24AEF54E40E94B5
S1131300F80B882334F080917A010E943203809391
S1131310CF00FF91EF91BF91AF919F918F917F91FA
S11313206F915F914F913F912F910F900FBE0F904E
S11313301F9018951F920F920FB60F9211242F939E
S11313403F934F935F936F937F938F939F93AF9349
S1131350BF93EF93FF938091780080937C018091F9
S1131360790080937A010E94D90220E030E04AEFAC
S113137054E40E945F0A181644F080917A0188238D
S113138021F00E9432038093CF00EAE7F0E08081ED
S113139080648083FF91EF91BF91AF919F918F9172
S11313A07F916F915F914F913F912F910F900FBE5D
S11313B00F901F9018955058BB27AA270E94F30935
S11313C00C94A60B0E94980B38F00E949F0B20F0FF
S11313D039F49F3F19F426F40C94950B0EF4E09520
S11313E0E7FB0C94660BE92F0E94B70B58F3BA176E
S11313F0620773078407950720F079F4A6F50C9427
S1131400F10B0EF4E0950B2EBA2FA02D0B01B901B0
S113141090010C01CA01A0011124FF27591B99F066
S1131420593F50F4503E68F11A16F040A22F232F72
S1131430342F4427585FF3CF469537952795A795C2
S1131440F0405395C9F77EF41F16BA0B620B730B69
S1131450840BBAF09150A1F0FF0FBB1F661F771FDA
S1131460881FC2F70EC0BA0F621F731F841F48F48F
S1131470879577956795B795F7959E3F08F0B0CF18
S11314809395880F08F09927EE0F979587950895FF
S11314900E94D90B90F09F3748F4911116F40C94E4
S11314A0F20B60E070E080E89FE3089526F01B16DD
S11314B0611D711D811D0C946C0B0C94870B0E9493
S11314C0420B08F481E008950E94780A0C94A60B5C
S11314D00E949F0B58F00E94980B40F029F45F3F44
S11314E029F00C94660B51110C94F20B0C94950B8F
S11314F00E94B70B68F39923B1F3552391F3951B1D
S1131500550BBB27AA2762177307840738F09F5F20
S11315105F4F220F331F441FAA1FA9F335D00E2E8D
S11315203AF0E0E832D091505040E695001CCAF7FA
S11315302BD0FE2F29D0660F771F881FBB1F2617BD
S113154037074807AB07B0E809F0BB0B802DBF0194
S1131550FF2793585F4F3AF09E3F510578F00C9463
S1131560660B0C94F20B5F3FE4F3983ED4F386953C
S113157077956795B795F7959F5FC9F7880F911D84
S11315809695879597F90895E1E0660F771F881F70
S1131590BB1F621773078407BA0720F0621B730B23
S11315A0840BBA0BEE1F88F7E09508950E94BF0BD9
S11315B088F09F5798F0B92F9927B751B0F0E1F010
S11315C0660F771F881F991F1AF0BA95C9F714C0C0
S11315D0B13091F00E94F10BB1E008950C94F10B3D
S11315E0672F782F8827B85F39F0B93FCCF38695F9
S11315F077956795B395D9F73EF490958095709556
S113160061957F4F8F4F9F4F0895E89409C097FBD2
S11316103EF490958095709561957F4F8F4F9F4FC5
S11316209923A9F0F92F96E9BB279395F695879509
S113163077956795B795F111F8CFFAF4BB0F11F4CC
S113164060FF1BC06F5F7F4F8F4F9F4F16C0882373
S113165011F096E911C0772321F09EE8872F762FA9
S113166005C0662371F096E8862F70E060E02AF0EA
S11316709A95660F771F881FDAF7880F96958795D6
S113168097F90895990F0008550FAA0BE0E8FEEFAB
S113169016161706E807F907C0F012161306E40732
S11316A0F50798F0621B730B840B950B39F40A262B
S11316B061F0232B242B252B21F408950A2609F409
S11316C0A140A6958FEF811D811D089597F99F670D
S11316D080E870E060E00895882371F4772321F0B6
S11316E09850872B762F07C0662311F499270DC0D5
S11316F09051862B70E060E02AF09A95660F771F70
S1131700881FDAF7880F9695879597F908959F3F74
S113171031F0915020F4879577956795B795880FA8
S1131720911D9695879597F908959FEF80EC0895FC
S113173000240A94161617061806090608950024AC
S11317400A9412161306140605060895092E039426
S1131750000C11F4882352F0BB0F40F4BF2B11F49A
S113176060FF04C06F5F7F4F8F4F9F4F089557FDF9
S11317709058440F551F59F05F3F71F04795880FFB
S113178097FB991F61F09F3F79F087950895121692
S113179013061406551FF2CF4695F1DF08C016163E
S11317A017061806991FF1CF8695710561050894EF
S11317B008950E94BF0BA0F0BEE7B91788F4BB27B9
S11317C09F3860F41616B11D672F782F8827985F0D
S11317D0F7CF869577956795B11D93959639C8F39C
S11317E00895E894BB2766277727CB0197F90895D6
S11317F00E94420B08F48FEF08950E94100C0C9481
S1131800A60B0E94980B38F00E949F0B20F09523A2
S113181011F00C94660B0C94950B11240C94F20BA0
S11318200E94B70B70F3959FC1F3950F50E0551FBD
S1131830629FF001729FBB27F00DB11D639FAA2721
S1131840F00DB11DAA1F649F6627B00DA11D661F70
S1131850829F2227B00DA11D621F739FB00DA11D91
S1131860621F839FA00D611D221F749F3327A00D4B
S1131870611D231F849F600D211D822F762F6A2FE7
S113188011249F5750409AF0F1F088234AF0EE0F4C
S1131890FF1FBB1F661F771F881F91505040A9F779
S11318A09E3F510580F00C94660B0C94F20B5F3F45
S11318B0E4F3983ED4F3869577956795B795F795B5
S11318C0E7959F5FC1F7FE2B880F911D969587952D
S11318D097F90895052E97FB1EF400940E94810C3D
S11318E057FD07D00E94890C07FC03D04EF40C94DA
S11318F0810C50954095309521953F4F4F4F5F4F48
S1131900089590958095709561957F4F8F4F9F4F67
S11319100895A1E21A2EAA1BBB1BFD010DC0AA1F2C
S1131920BB1FEE1FFF1FA217B307E407F50720F044
S1131930A21BB30BE40BF50B661F771F881F991FBF
S11319401A9469F760957095809590959B01AC0108
S1131950BD01CF010895AEE0B0E0E1EBFCE00C94F2
S11319606C0F0D891E8986E08C831A8309838FEF9F
S11319709FE79E838D83AE01475E5F4F6F89788DAD
S1131980CE0101960E94CD0CEF81F885E00FF11F86
S113199010822E96E4E00C94880FABE0B0E0E3ED07
S11319A0FCE00C945E0F6C017B018A01FC01178240
S11319B01682838181FFCCC1CE0101963C01F601E0
S11319C09381F70193FD859193FF81917F01882392
S11319D009F4BAC1853239F493FD859193FF81915D
S11319E07F01853229F4B60190E00E94C40EE7CF4E
S11319F0912C212C312CFFE1F315D8F08B3279F0A6
S1131A0038F4803279F08332A1F4232D20611DC093
S1131A108D3261F0803369F4232D216016C0832D4B
S1131A208260382EE32DE4603E2E2AC0F32DF86048
S1131A301DC037FC2DC020ED280F2A3040F08E3217
S1131A40B9F436FC81C1232D2064322E19C036FE30
S1131A5006C08AE0989E200D1124922E11C0EAE05F
S1131A602E9E200D1124222EF32DF0623F2E08C04D
S1131A708C3621F4832D8068382E02C0883641F4D8
S1131A80F70193FD859193FF81917F018111B3CF7C
S1131A90982F9F7D9554933028F40C5F1F4F9FE33C
S1131AA099830DC0833631F0833771F0833509F0A3
S1131AB059C021C0F801808189830E5F1F4F88249B
S1131AC08394912C530113C02801F2E04F0E511C52
S1131AD0F801A080B18036FE03C0692D70E002C019
S1131AE06FEF7FEFC5010E94B90E4C018201F32D07
S1131AF0FF773F2E16C0280122E0420E511CF80148
S1131B00A080B18036FE03C0692D70E002C06FEF83
S1131B107FEFC5010E94AE0E4C01F32DF0683F2EFD
S1131B20820133FC1BC0822D90E088169906B0F424
S1131B30B60180E290E00E94C40E2A94F4CFF5012D
S1131B4037FC859137FE81915F01B60190E00E94D8
S1131B50C40E21102A9421E0821A91088114910460
S1131B6071F7E8C0843611F0893641F5F80137FE83
S1131B7007C060817181828193810C5F1F4F08C00F
S1131B8060817181072E000C880B990B0E5F1F4F2B
S1131B90F32DFF763F2E97FF09C0909580957095A1
S1131BA061957F4F8F4F9F4FF0683F2E2AE030E0C2
S1131BB0A3010E94000F882E861845C0853731F492
S1131BC0232D2F7EB22E2AE030E025C0932D997F5D
S1131BD0B92E8F36C1F018F4883579F0B5C0803746
S1131BE019F0883721F0B0C0E92FE061BE2EB4FEB1
S1131BF00DC0FB2DF460BF2E09C034FE0AC0292F8E
S1131C002660B22E06C028E030E005C020E130E0B6
S1131C1002C020E132E0F801B7FE07C060817181A3
S1131C20828193810C5F1F4F06C06081718180E0C7
S1131C3090E00E5F1F4FA3010E94000F882E8618AC
S1131C40FB2DFF773F2E36FE0DC0232D2E7FA22EB7
S1131C50891458F434FE0BC032FC09C0832D8E7EE7
S1131C60A82E05C0B82CA32C03C0B82C01C0B92CD5
S1131C70A4FE0FC0FE01E80DF11D8081803321F424
S1131C809A2D997EA92E09C0A2FE06C0B394B394DE
S1131C9004C08A2D867809F0B394A3FC11C0A0FE79
S1131CA006C0B21488F4280C922C9B180EC0B214EF
S1131CB060F4B60180E290E00E94C40EB394F7CFC2
S1131CC0B21418F42B1802C0982C212CA4FE10C0B6
S1131CD0B60180E390E00E94C40EA2FE17C0A1FCEE
S1131CE003C088E790E002C088E590E0B6010CC02C
S1131CF08A2D867859F0A1FE02C08BE201C080E2F1
S1131D00A7FC8DE2B60190E00E94C40E891438F459
S1131D10B60180E390E00E94C40E9A94F7CF8A94AF
S1131D20F301E80DF11D8081B60190E00E94C40E1C
S1131D308110F5CF222009F442CEB60180E290E072
S1131D400E94C40E2A94F6CFF6018681978102C0C0
S1131D508FEF9FEF2B96E2E10C947A0FFC01059034
S1131D60615070400110D8F7809590958E0F9F1F99
S1131D700895FC016150704001900110D8F78095DE
S1131D8090958E0F9F1F08950F931F93CF93DF930A
S1131D90FB01238121FD03C08FEF9FEF2CC022FFA5
S1131DA016C046815781248135814217530744F474
S1131DB0A081B1819D012F5F3F4F318320838C939C
S1131DC0268137812F5F3F4F3783268314C08B01D1
S1131DD0EC01FB010084F185E02D0995892BE1F6E6
S1131DE0D80116968D919C911797019617969C93FE
S1131DF08E931697CE01DF91CF911F910F91089585
S1131E00FA01AA27283051F1203181F1E8946F9327
S1131E106E7F6E5F7F4F8F4F9F4FAF4FB1E03ED0CD
S1131E20B4E03CD0670F781F891F9A1FA11D680F6B
S1131E30791F8A1F911DA11D6A0F711D811D911D9E
S1131E40A11D20D009F468943F912AE0269F112413
S1131E503019305D3193DEF6CF010895462F477077
S1131E60405D4193B3E00FD0C9F7F6CF462F4F70D2
S1131E70405D4A3318F0495D31FD4052419302D030
S1131E80A9F7EACFB4E0A6959795879577956795D6
S1131E90BA95C9F700976105710508959B01AC01D6
S1131EA00A2E06945795479537952795BA95C9F7FD
S1131EB0620F731F841F951FA01D08952F923F92D8
S1131EC04F925F926F927F928F929F92AF92BF9246
S1131ED0CF92DF92EF92FF920F931F93CF93DF93F2
S1131EE0CDB7DEB7CA1BDB0B0FB6F894DEBF0FBE4F
S1131EF0CDBF09942A88398848885F846E847D849C
S1131F008C849B84AA84B984C884DF80EE80FD809D
S1131F100C811B81AA81B981CE0FD11D0FB6F89413
S1111F20DEBF0FBECDBFED010895F894FFCFD4
S1131F2ECDCC4C3E0000803F030004000120202055
S1131F3E2000256400416B6B753A00552F6D006BC4
S1071F4E6D2F680087
S9030129D2
