S0130000616E737465756572756E672E7372656360
S11300000C9456000C9465080C9473000C947300C3
S11300100C9473000C9473000C9473000C94730090
S11300200C9473000C943D080C9473000C947300AE
S11300300C9473000C9473000C9473000C94730070
S11300400C9473000C9473000C9473000C94730060
S11300500C94BE020C94D6040C9473000C9473009C
S11300600C9473000C9492040C9473000C9473001D
S11300700C9473000C9479080C9473000C94730022
S11300800C949F060C94BA060C9473000C947300A1
S11300900C9473000C9473000C9473000C94730010
S11300A00C9473000C9473000C94730011241FBE01
S11300B0CFEFDAE0DEBFCDBF11E0A0E0B1E0E4E9CC
S11300C0FCE102C005900D92A832B107D9F721E0F6
S11300D0A8E2B1E001C01D92A437B207E1F70E9483
S11300E035060C94480E0C940000E1E8F0E08081A1
S11300F08160808380818260808380818B7F808324
S1130100EFE6F0E0808181608083089510924501DC
S1130110E4E8F0E080819181909347018093460167
S11301201182108208958F929F92AF92BF92CF92C4
S1130130DF92EF92FF92809145018823E9F01092BB
S1130140470110924601109231011092320110922F
S113015033011092340110925601109257011092FB
S113016058011092590110924E0110924F011092B1
S1130170500110925101B6C08091460190914701FF
S11301804A9730F489E190E09093470180934601C7
S113019080914601909147018C389C4330F08CE863
S11301A09CE390934701809346012091460130914E
S11301B0470180910A0190910B01289FB001299F6A
S11301C0700D389F700D112480E090E00E94F909B1
S11301D060934E0170934F018093500190935101AD
S11301E060914E0170914F018091500190915101A5
S11301F020E030E048EC52E40E94580960934E013C
S113020070934F01809350019093510180904E015F
S113021090904F01A0905001B0905101609108015D
S113022070910901072E000C880B990B0E94FB09A1
S11302306B017C0120E030E040EC50E4C501B401E6
S11302400E94F10A9B01AC01C701B6010E94F10AA8
S1130250609352017093530180935401909355011C
S11302606091520170915301809154019091550114
S113027020E030E040E251E40E94580960935201CA
S1130280709353018093540190935501209152012E
S113029030915301409154015091550160E070E058
S11302A08AE794E40E9458096093560170935701B9
S11302B080935801909359016091560170915701B0
S11302C0809158019091590120E030E040E752E4D8
S11302D00E94F10A609331017093320180933301DB
S11302E090933401FF90EF90DF90CF90BF90AF9048
S11302F09F908F9008958F929F92AF92BF92CF92CA
S1130300DF92EF92FF9280914501882329F11092A8
S11303104701109246011092370110923801109251
S1130320390110923A011092310110923201109267
S11303303301109234011092560110925701109219
S113034058011092590110924E0110924F011092CF
S113035050011092510186C06091310170913201B7
S113036080913301909134010E94CA09709336013F
S11303706093350160915601709157018091580145
S1130380909159018090000190900101A090020188
S1130390B0900301C0900401D0900501E0900601E3
S11303A0F0900701A50194010E94F10A23EC35EFB6
S11303B048E450E40E94F10AA70196010E945809FA
S11303C026E636E646E650E40E94F10A60934801C8
S11303D07093490180934A0190934B0120915601F7
S11303E0309157014091580150915901C501B40110
S11303F00E94F10A23EC35EF48E450E40E94F10A2C
S1130400A70196010E94580926E636E646E650E41E
S11304100E94F10A609348017093490180934A0154
S113042090934B01609148017091490180914A0178
S113043090914B010E943C096093370170933801FD
S11304408093390190933A0160913701709138019A
S11304508091390190913A010E94CA0970934D012B
S113046060934C01FF90EF90DF90CF90BF90AF90DE
S11304709F908F900895CF93DF93CBE3D1E085E0F5
S1130480E0E1F1E0DE0101900D928A95E1F78BE85D
S11304900E94C005CE010E94F9058091350190911A
S11304A036019F938F9385E191E09F938F93DF9320
S11304B0CF930E945E0B8AE80E94C005CE010E9481
S11304C0F9050F900F900F900F900F900F90DF9100
S11304D0CF910895CF93DF93CBE3D1E085E0E0E1C2
S11304E0F1E0DE0101900D928A95E1F78BEC0E9418
S11304F0C005CE010E94F90580914C0190914D01F7
S11305009F938F9385E191E09F938F93DF93CF9394
S11305100E945E0B8AEC0E94C005CE010E94F90580
S11305200F900F900F900F900F900F90DF91CF913D
S113053008951092310110923201109233011092F9
S1130540340110923701109238011092390110923F
S11305503A010895CF9360913101709132018091F5
S1130560330190913401C1E020E030E0A9010E9400
S113057053098111C0E08C2FCF9108951F920F92DF
S11305800FB60F9211248F9381E08093450110924E
S113059047011092460110923701109238011092CF
S11305A0390110923A0110924D0110924C011092AF
S11305B031011092320110923301109234011092E1
S11305C03601109235011092560110925701109283
S11305D058011092590110924E0110924F0110923D
S11305E05001109251018F910F900FBE0F901F90E8
S11305F01895805F9A409695879596958795992743
S11306000895CF93DF93D82F609131017091320117
S1130610809133019091340120E030E44CE955E4B9
S11306200E94EC0A882364F080E090E4ACE9B5E42D
S11306308093310190933201A0933301B09334013C
S113064060913101709132018091330190913401B4
S113065020E030E447E155E40E94530918167CF089
S11306606091310170913201809133019091340194
S113067020E030E041E053E40E94580954C0609106
S1130680310170913201809133019091340120E065
S113069030E447E155E40E94EC0A88232CF1609190
S11306A0310170913201809133019091340120E045
S11306B030E84BE355E40E9453091816ACF06091FE
S11306C0310170913201809133019091340120E025
S11306D030E04CE652E40E94580926E636E642EB46
S11306E051E40E94CF081FC0609131017091320122
S11306F0809133019091340120E030E84BE355E4DC
S11307000E94EC0A88230CF44AC060913101709174
S11307103201809133019091340120E030E044EDC6
S113072052E40E94580920E030E040EA50E40E947C
S1130730F10A0E94CA09C62F6091310170913201F9
S1130740809133019091340120E030E0A9010E94AE
S11307505309811102C0D531F0F4CB3E38F401C005
S1130760C0E06C2FC43118F464E101C06BEE2D2F8E
S113077030E0862F90E0AC014C5E5F4F4217530788
S11307801CF4D4E1D60F1EC0449728173907D4F4BB
S1130790DCEED60F17C0D4E115C0D4E113C06091CC
S11307A0310170913201809133019091340120E044
S11307B030E0A9010E9453098111D2CFD53168F7E5
S11307C0C0E0CFCF8D2FDF91CF9108951F928F93EB
S11307D085E191E09F938F938AE591E09F938F93B6
S11307E00E945E0B80EC0E94C0058AE591E00E94A5
S11307F0F9050F900F900F900F900F900F900895A0
S11308001092CD0087E68093CC00A9ECB0E08C91E7
S113081080618C938C9180688C938C9188608C938C
S1130820EAECF0E080818F7B808380818F77808306
S113083080818F7E80838081806280838081877FB6
S113084080838081826080838081846080838C91B6
S11308508B7F8C9380818083089584B58F7B84BD46
S113086084B58F7784BD84B58E7F84BD84B58D7F38
S113087084BD85B5877F85BD85B58E7F85BD85B5EE
S11308808D7F85BD85B5846085BD84E687BDEEE634
S1130890F0E08081826080830895E8E6F1E0808161
S11308A080936701818190E0909366018093650154
S11308B022818091650190916601922B909366014B
S11308C080936501838190E09093290180932801AE
S11308D024818091280190912901922B90932901E0
S11308E0809328010895A0E6B1E08C91E8E6F1E058
S11308F0808311968C911197818312968C91129713
S1130900828313968C911397838314968C9184839A
S1130910089580916701813A18F4809167010895E0
S113092084E108951F920F920FB60F9211242F9312
S11309303F934F935F936F937F938F939F93AF9363
S1130940BF93EF93FF9380912C01813021F4809128
S11309502A01853020F480912B018823B1F0109274
S11309602A0116BCE0912B01F0E08091CE00E05A00
S1130970FE4F808380912B01843011F40E94730414
S113098080912B018F5F80932B01FF91EF91BF9199
S1130990AF919F918F917F916F915F914F913F9113
S11309A02F910F900FBE0F901F9018951F920F92CA
S11309B00FB60F9211242F933F934F935F936F932E
S11309C07F938F939F93AF93BF93EF93FF9316BC43
S11309D081E080932C0110922B0180912A018F5F7A
S11309E080932A01823011F40E944D0480912A01DF
S11309F08B3F18F08AEF80932A01FF91EF91BF910A
S1130A00AF919F918F917F916F915F914F913F91A2
S1130A102F910F900FBE0F901F901895009769F0BB
S1130A2020E030E0EFE9FFE03197F1F700C000008B
S1130A302F5F3F4F82179307A9F70895899A85E09E
S1130A4090E00E940E05899885E090E00E940E05D2
S1130A50089582E390E00E940E058998289881B356
S1130A608F7381BB81B3806381BB0E941E0581B3F8
S1130A708F7381BB81B3806381BB0E941E0581B3E8
S1130A808F7381BB81B3806381BB0E941E0581B3D8
S1130A908F7281BB8D9A0E941E0581B38F7281BBB8
S1130AA08D9A0E941E058F9A81B38F7881BB0E9414
S1130AB01E0581B38F7081BB0E941E058F9A81B37E
S1130AC08F7881BB0E941E0581B38F7081BB0E9409
S1130AD01E0581B38F7181BB8C9A0E941E0581B360
S1130AE08F7081BB0E941E0581B38F7381BB81B35C
S1130AF0806381BB0E941E0581B38F7081BB0E94FD
S1130B001E0581B3806F81BB0E941E050895CF939B
S1130B10C82F289A882314F48F9A01C08F98C6FF8F
S1130B2002C08E9A01C08E98C5FF02C08D9A01C082
S1130B308D98C4FF02C08C9A01C08C980E941E0537
S1130B4081E090E00E940E05C3FF02C08F9A01C0AD
S1130B508F98C2FF02C08E9A01C08E98C1FF02C056
S1130B608D9A01C08D98C0FF02C08C9A01C08C98E8
S1130B700E941E0581E090E00E940E05CF91089529
S1130B80CF93C82F2898882314F48F9A01C08F9884
S1130B90C6FF02C08E9A01C08E98C5FF02C08D9A0E
S1130BA001C08D98C4FF02C08C9A01C08C980E9429
S1130BB01E0581E090E00E940E05C3FF02C08F9ADB
S1130BC001C08F98C2FF02C08E9A01C08E98C1FFE7
S1130BD002C08D9A01C08D98C0FF02C08C9A01C0DA
S1130BE08C980E941E0581E090E00E940E05CF9132
S1130BF00895CF93DF93EC018881882331F0219607
S1130C000E94870589918111FBCFDF91CF910895CF
S1130C1080E80E94C00588E191E00E94F9058FE810
S1130C200E94C0058EE191E00E94F9058FEC0E94BC
S1130C30C00582E291E00E94F9050895E1E9F0E03F
S1130C4080818160808380818260808380818B7FCA
S1130C508083E1E7F0E080818260808384EC99E026
S1130C6090939900809398000895E1E6F0E080E87D
S1130C708083108285B7806885BF85B7806885BF0B
S1130C803F9A3E9A269A259A579A569A21982298DC
S1130C90239829982A982B985098589A24982C9AF3
S1130CA06E9A76988098209A819A879A869A859ADD
S1130CB0849A5A9A549A279A0E9405070E94C40655
S1130CC00E9422070E9475000E9400040E942D04C5
S1130CD00E941E060E9429058CE00E94C0050E9405
S1130CE0560778940E9408062FEF87EA91E6215070
S1130CF080409040E1F700C000000E9499021092E9
S1130D002E0180912E018A30E0F30E947B018091B4
S1130D100C0190910D010E94F90280932D010E9413
S1130D20E6030E94890490E090936E0180936D0124
S1130D300E943B020E946A0210922E01E2CF1F928F
S1130D400F920FB60F9211248F9310929500109268
S1130D50940080912E01893110F010922E0180911F
S1130D602E018F5F80932E018F910F900FBE0F90F5
S1130D701F9018951F920F920FB60F9211240F9087
S1130D800FBE0F901F901895CF93DF93E1ECF0E026
S1130D9080818E7F808380818D7F80838081846049
S1130DA080838081877F8083A0ECB0E08C91826017
S1130DB08C93C3ECD0E088818E7F888388818260A5
S1130DC088838C9180648C938C918F778C938C9195
S1130DD080618C938C918F7D8C93A2ECB0E08C918C
S1130DE084608C938C91877F8C9380818F7E8083A9
S1130DF080818F7D80838FEF8093D1001092C40017
S1130E008093D400DF91CF910895E8E6F0E08081EB
S1130E1081608083EBE6F0E0808182608083808162
S1130E208460808380818860808380818061808306
S1130E30E9E6F0E080818160808380818D7F80831A
S1130E40E89A0895ECE7F0E08081806480838081F3
S1130E508F77808380818062808380818E7F80838E
S1130E6080818D7F808380818B7F80838081877F59
S1130E70808380818F7E8083EBE7F0E080818F7DAB
S1130E808083EAE7F0E080818068808380818860E5
S1130E90808380818E7F8083808182608083808153
S1130EA084608083808180648083089583B18E70A0
S1130EB08695809372010E94AA02882349F01C99A6
S1130EC004C081E080930E0108C010920E016DC031
S1130ED080910E01882309F468C0809172018330E7
S1130EE049F128F48130C1F0823091F15BC0853042
S1130EF029F008F449C08630C9F154C0E4ECF0E0AC
S1130F00108285B18F7985B98BB18F7380648BB969
S1130F108081836080830895E4ECF0E0108288B1DE
S1130F208F7388B98BB18F7380648BB980818C6027
S1130F3080830895E4ECF0E010828BB18F738BB959
S1130F4088B18F73806488B980818C6080830895B0
S1130F50E4ECF0E0108285B18F7985B988B18F73A4
S1130F60806488B98081806380830895E4ECF0E034
S1130F70108288B18F7388B985B18F79806285B901
S1130F808081806380830895E4ECF0E010828BB16B
S1130F908F738BB985B18F79806285B980818360C5
S1130FA0808308951092C400089580917201833063
S1130FB049F128F48130C1F0823091F15BC0853071
S1130FC029F008F449C08630C9F154C0E4ECF0E0DB
S1130FD0108285B18F7985B988B18F73806488B99F
S1130FE08081806380830895E4ECF0E0108288B10E
S1130FF08F7388B985B18F79806285B98081806368
S113100080830895E4ECF0E010828BB18F738BB988
S113101085B18F79806285B98081836080830895EA
S1131020E4ECF0E0108285B18F7985B98BB18F73D0
S113103080648BB98081836080830895E4ECF0E060
S1131040108288B18F7388B98BB18F7380648BB928
S113105080818C6080830895E4ECF0E010828BB191
S11310608F738BB988B18F73806488B980818C60E9
S1131070808308951092C40008951F920F920FB6B2
S11310800F9211242F933F934F935F936F937F930A
S11310908F939F93AF93BF93EF93FF930E94560751
S11310A00E9486000E949300FF91EF91BF91AF913F
S11310B09F918F917F916F915F914F913F912F916C
S11310C00F900FBE0F901F9018951F920F920FB69E
S11310D00F9211248F93489B04C081E080930F01E9
S11310E002C010920F018F910F900FBE0F901F90AE
S11310F018951F920F920FB60F9211242F933F93BE
S11311004F935F936F937F938F939F93AF93BF930B
S1131110CF93DF93EF93FF938091780080937301D3
S1131120809179008A3F18F48093710103C08AEF9B
S11311308093710180912F018431B0F010922F01BE
S1131140CFECD0E0688160933001809171010E94FE
S113115001038883888180937001811108C09BB149
S113116080E189278BB903C08F5F80932F01EAE761
S1131170F0E0808180648083FF91EF91DF91CF91D3
S1131180BF91AF919F918F917F916F915F914F919B
S11311903F912F910F900FBE0F901F9018955058AC
S11311A0BB27AA270E94E7080C949A0A0E948C0A7B
S11311B038F00E94930A20F039F49F3F19F426F482
S11311C00C94890A0EF4E095E7FB0C945A0AE92F73
S11311D00E94AB0A58F3BA1762077307840795078E
S11311E020F079F4A6F50C94E50A0EF4E0950B2EA4
S11311F0BA2FA02D0B01B90190010C01CA01A00165
S11312001124FF27591B99F0593F50F4503E68F1BF
S11312101A16F040A22F232F342F4427585FF3CF00
S1131220469537952795A795F0405395C9F77EF4D1
S11312301F16BA0B620B730B840BBAF09150A1F01A
S1131240FF0FBB1F661F771F881FC2F70EC0BA0FA0
S1131250621F731F841F48F4879577956795B79528
S1131260F7959E3F08F0B0CF9395880F08F0992723
S1131270EE0F9795879508950E94CD0A90F09F37B9
S113128048F4911116F40C94E60A60E070E080E8EA
S11312909FE3089526F01B16611D711D811D0C949A
S11312A0600A0C947B0A0E94360A08F481E00895CF
S11312B00E946C090C949A0A0E94930A58F00E94A6
S11312C08C0A40F029F45F3F29F00C945A0A51111A
S11312D00C94E60A0C94890A0E94AB0A68F39923D9
S11312E0B1F3552391F3951B550BBB27AA2762171E
S11312F07307840738F09F5F5F4F220F331F441F2B
S1131300AA1FA9F335D00E2E3AF0E0E832D091505E
S11313105040E695001CCAF72BD0FE2F29D0660F4B
S1131320771F881FBB1F261737074807AB07B0E88E
S113133009F0BB0B802DBF01FF2793585F4F3AF094
S11313409E3F510578F00C945A0A0C94E60A5F3FCC
S1131350E4F3983ED4F3869577956795B795F7951A
S11313609F5FC9F7880F911D9695879597F9089502
S1131370E1E0660F771F881FBB1F6217730784079E
S1131380BA0720F0621B730B840BBA0BEE1F88F7AD
S1131390E09508950E94B30A88F09F5798F0B92FFA
S11313A09927B751B0F0E1F0660F771F881F991F96
S11313B01AF0BA95C9F714C0B13091F00E94E50A49
S11313C0B1E008950C94E50A672F782F8827B85F59
S11313D039F0B93FCCF3869577956795B395D9F7EE
S11313E03EF490958095709561957F4F8F4F9F4FF8
S11313F00895E89409C097FB3EF490958095709504
S113140061957F4F8F4F9F4F9923A9F0F92F96E94C
S1131410BB279395F695879577956795B795F111C1
S1131420F8CFFAF4BB0F11F460FF1BC06F5F7F4F5E
S11314308F4F9F4F16C0882311F096E911C0772370
S113144021F09EE8872F762F05C0662371F096E879
S1131450862F70E060E02AF09A95660F771F881F48
S1131460DAF7880F9695879597F90895990F0008EC
S1131470550FAA0BE0E8FEEF16161706E807F90762
S1131480C0F012161306E407F50798F0621B730BFD
S1131490840B950B39F40A2661F0232B242B252B7E
S11314A021F408950A2609F4A140A6958FEF811D21
S11314B0811D089597F99F6780E870E060E00895C2
S11314C0882371F4772321F09850872B762F07C057
S11314D0662311F499270DC09051862B70E060E0CB
S11314E02AF09A95660F771F881FDAF7880F96956A
S11314F0879597F908959F3F31F0915020F487958F
S113150077956795B795880F911D9695879597F967
S113151008959FEF80EC089500240A941616170688
S113152018060906089500240A94121613061406D0
S113153005060895092E0394000C11F4882352F033
S1131540BB0F40F4BF2B11F460FF04C06F5F7F4FEB
S11315508F4F9F4F089557FD9058440F551F59F0D2
S11315605F3F71F04795880F97FB991F61F09F3F8C
S113157079F087950895121613061406551FF2CFB5
S11315804695F1DF08C0161617061806991FF1CF05
S1131590869571056105089408950E94B30AA0F028
S11315A0BEE7B91788F4BB279F3860F41616B11D3F
S11315B0672F782F8827985FF7CF8695779567955B
S11315C0B11D93959639C8F30895E894BB2766270F
S11315D07727CB0197F908950E94360A08F48FEF14
S11315E008950E94040B0C949A0A0E948C0A38F005
S11315F00E94930A20F0952311F00C945A0A0C943B
S1131600890A11240C94E60A0E94AB0A70F3959F90
S1131610C1F3950F50E0551F629FF001729FBB27E5
S1131620F00DB11D639FAA27F00DB11DAA1F649F81
S11316306627B00DA11D661F829F2227B00DA11D34
S1131640621F739FB00DA11D621F839FA00D611DBA
S1131650221F749F3327A00D611D231F849F600DDB
S1131660211D822F762F6A2F11249F5750409AF004
S1131670F1F088234AF0EE0FFF1FBB1F661F771F90
S1131680881F91505040A9F79E3F510580F00C945B
S11316905A0A0C94E60A5F3FE4F3983ED4F3869525
S11316A077956795B795F795E7959F5FC1F7FE2BFB
S11316B0880F911D9695879597F90895AEE0B0E04F
S11316C0E4E6FBE00C941F0E0D891E8986E08C83F2
S11316D01A8309838FEF9FE79E838D83AE01475E54
S11316E05F4F6F89788DCE0101960E94800BEF8148
S11316F0F885E00FF11F10822E96E4E00C943B0E67
S1131700ABE0B0E0E6E8FBE00C94110E6C017B0169
S11317108A01FC0117821682838181FFCCC1CE012C
S113172001963C01F6019381F70193FD859193FFA6
S113173081917F01882309F4BAC1853239F493FD7C
S1131740859193FF81917F01853229F4B60190E060
S11317500E94770DE7CF912C212C312CFFE1F3155A
S1131760D8F08B3279F038F4803279F08332A1F4F6
S1131770232D20611DC08D3261F0803369F4232D47
S1131780216016C0832D8260382EE32DE4603E2E46
S11317902AC0F32DF8601DC037FC2DC020ED280FA2
S11317A02A3040F08E32B9F436FC81C1232D2064F6
S11317B0322E19C036FE06C08AE0989E200D1124F0
S11317C0922E11C0EAE02E9E200D1124222EF32D1C
S11317D0F0623F2E08C08C3621F4832D8068382EA9
S11317E002C0883641F4F70193FD859193FF8191FE
S11317F07F018111B3CF982F9F7D9554933028F4A6
S11318000C5F1F4F9FE399830DC0833631F08337FC
S113181071F0833509F059C021C0F80180818983B2
S11318200E5F1F4F88248394912C530113C0280109
S1131830F2E04F0E511CF801A080B18036FE03C0C7
S1131840692D70E002C06FEF7FEFC5010E946C0D3F
S11318504C018201F32DFF773F2E16C0280122E0B0
S1131860420E511CF801A080B18036FE03C0692DE0
S113187070E002C06FEF7FEFC5010E94610D4C0163
S1131880F32DF0683F2E820133FC1BC0822D90E0C3
S113189088169906B0F4B60180E290E00E94770DB4
S11318A02A94F4CFF50137FC859137FE81915F01CD
S11318B0B60190E00E94770D21102A9421E0821A4B
S11318C091088114910471F7E8C0843611F08936C7
S11318D041F5F80137FE07C06081718182819381EF
S11318E00C5F1F4F08C060817181072E000C880BAC
S11318F0990B0E5F1F4FF32DFF763F2E97FF09C004
S113190090958095709561957F4F8F4F9F4FF068AC
S11319103F2E2AE030E0A3010E94B30D882E8618E2
S113192045C0853731F4232D2F7EB22E2AE030E0D6
S113193025C0932D997FB92E8F36C1F018F48835C0
S113194079F0B5C0803719F0883721F0B0C0E92F9D
S1131950E061BE2EB4FE0DC0FB2DF460BF2E09C0A5
S113196034FE0AC0292F2660B22E06C028E030E0DB
S113197005C020E130E002C020E132E0F801B7FE0A
S113198007C060817181828193810C5F1F4F06C003
S11319906081718180E090E00E5F1F4FA3010E947F
S11319A0B30D882E8618FB2DFF773F2E36FE0DC013
S11319B0232D2E7FA22E891458F434FE0BC032FC42
S11319C009C0832D8E7EA82E05C0B82CA32C03C07D
S11319D0B82C01C0B92CA4FE0FC0FE01E80DF11D06
S11319E08081803321F49A2D997EA92E09C0A2FE0C
S11319F006C0B394B39404C08A2D867809F0B394D6
S1131A00A3FC11C0A0FE06C0B21488F4280C922CCA
S1131A109B180EC0B21460F4B60180E290E00E94FC
S1131A20770DB394F7CFB21418F42B1802C0982C86
S1131A30212CA4FE10C0B60180E390E00E94770D33
S1131A40A2FE17C0A1FC03C088E790E002C088E5AD
S1131A5090E0B6010CC08A2D867859F0A1FE02C030
S1131A608BE201C080E2A7FC8DE2B60190E00E9407
S1131A70770D891438F4B60180E390E00E94770D65
S1131A809A94F7CF8A94F301E80DF11D8081B60191
S1131A9090E00E94770D8110F5CF222009F442CE08
S1131AA0B60180E290E00E94770D2A94F6CFF60109
S1131AB08681978102C08FEF9FEF2B96E2E10C9411
S1131AC02D0EFC010590615070400110D8F78095EF
S1131AD090958E0F9F1F0895FC01615070400190F6
S1131AE00110D8F7809590958E0F9F1F08950F933E
S1131AF01F93CF93DF93FB01238121FD03C08FEF5D
S1131B009FEF2CC022FF16C0468157812481358166
S1131B104217530744F4A081B1819D012F5F3F4FC9
S1131B20318320838C93268137812F5F3F4F378306
S1131B30268314C08B01EC01FB010084F185E02DA8
S1131B400995892BE1F6D80116968D919C911797EA
S1131B50019617969C938E931697CE01DF91CF91A1
S1131B601F910F910895FA01AA27283051F12031CD
S1131B7081F1E8946F936E7F6E5F7F4F8F4F9F4F1D
S1131B80AF4FB1E03ED0B4E03CD0670F781F891F5F
S1131B909A1FA11D680F791F8A1F911DA11D6A0F2D
S1131BA0711D811D911DA11D20D009F468943F91E0
S1131BB02AE0269F11243019305D3193DEF6CF01DF
S1131BC00895462F4770405D4193B3E00FD0C9F7A5
S1131BD0F6CF462F4F70405D4A3318F0495D31FD12
S1131BE04052419302D0A9F7EACFB4E0A695979565
S1131BF0879577956795BA95C9F70097610571053B
S1131C0008959B01AC010A2E069457954795379584
S1131C102795BA95C9F7620F731F841F951FA01DDE
S1131C2008952F923F924F925F926F927F928F927C
S1131C309F92AF92BF92CF92DF92EF92FF920F9357
S1131C401F93CF93DF93CDB7DEB7CA1BDB0B0FB661
S1131C50F894DEBF0FBECDBF09942A88398848881E
S1131C605F846E847D848C849B84AA84B984C884B4
S1131C70DF80EE80FD800C811B81AA81B981CE0FAB
S1131C80D11D0FB6F894DEBF0FBECDBFED01089590
S1071C90F894FFCFF2
S1131C94CDCC4C3E0000803F03000400B80B01018E
S1131CA42020202000256400416B6B753A00552FD9
S10B1CB46D006B6D2F68000048
S903012CCF
