:100000000C9456000C9473000C9473000C947300C1
:100010000C9473000C9473000C9473000C94730094
:100020000C9473000C94A7090C9473000C94730047
:100030000C9473000C9473000C9473000C94730074
:100040000C9473000C9473000C9473000C94730064
:100050000C9411030C94EE050C9473000C94730033
:100060000C9473000C94AA050C9473000C94730008
:100070000C9473000C94CF090C9473000C947300CF
:100080000C9410080C9473000C9473000C9473007F
:100090000C9473000C9473000C9473000C94730014
:1000A0000C9473000C9473000C94730011241FBE05
:1000B000CFEFDAE0DEBFCDBF11E0A0E0B1E0ECEAC7
:1000C000FFE102C005900D92A432B107D9F721E0FB
:1000D000A4E2B1E001C01D92AF39B207E1F70E947E
:1000E00099070C94D40F0C940000E1E8F0E08081B3
:1000F0008160808380818260808380818B7F808328
:10010000EFE6F0E0808181608083089510926E01B7
:10011000E4E8F0E0808191819093700180936F0119
:100120001182108208958F929F92AF92BF92CF92C8
:10013000DF92EF92FF9280916E018823E9F0109296
:10014000700110926F0110923201109233011092DF
:1001500034011092350110927F01109280011092AB
:100160008101109282011092770110927801109211
:10017000790110927A01C8C080916F01909170014D
:100180008C389C4330F08CE89CE390937001809312
:100190006F0120916F013091700180910A0190915F
:1001A0000B01289FB001299F700D389F700D1124FD
:1001B00080E090E00E94440B609377017093780197
:1001C0008093790190937A01609177017091780121
:1001D0008091790190917A0120E030E048EC52E47E
:1001E0000E94A30A6093770170937801809379014C
:1001F00090937A018090770190907801A090790196
:10020000B0907A016091080170910901072E000CED
:10021000880B990B0E94460B6B017C0120E030E0BB
:1002200040EC50E4C501B4010E943C0C9B01AC01C0
:10023000C701B6010E943C0C60937B0170937C0166
:1002400080937D0190937E0160917B0170917C0190
:1002500080917D0190917E0120E030E040E251E408
:100260000E94A30A60937B0170937C0180937D01BF
:1002700090937E0120917B0130917C0140917D0122
:1002800050917E0160E070E08AE794E40E94A30A46
:1002900060937F017093800180938101909382012C
:1002A00060917F0170918001809181019091820124
:1002B00020E030E040E752E40E943C0C60933201C1
:1002C0007093330180933401909335018091240120
:1002D000E82FF0E0409132015091330160913401F8
:1002E00070913501EE0FFF1FEE0FFF1FE85CFE4F10
:1002F00040835183628373838F5F8A3018F48093C5
:10030000240102C010922401FF90EF90DF90CF9063
:10031000BF90AF909F908F9008958F929F92AF92D1
:10032000BF92CF92DF92EF92FF9280916E0188236D
:1003300029F11092700110926F01109260011092D9
:1003400061011092620110926301109232011092C9
:100350003301109234011092350110927F011092F6
:100360008001109281011092820110927701109207
:1003700078011092790110927A0186C06091320161
:100380007091330180913401909135010E94150BD9
:10039000709337016093360160917F017091800105
:1003A00080918101909182018090000190900101E3
:1003B000A0900201B0900301C0900401D09005010B
:1003C000E0900601F0900701A50194010E943C0C09
:1003D00023EC35EF48E450E40E943C0CA701960161
:1003E0000E94A30A26E636E646E650E40E943C0C4C
:1003F0006093710170937201809373019093740103
:1004000020917F01309180014091810150918201C2
:10041000C501B4010E943C0C23EC35EF48E450E4E4
:100420000E943C0CA70196010E94A30A26E636E62C
:1004300046E650E40E943C0C609371017093720197
:1004400080937301909374016091710170917201B6
:1004500080917301909174010E94870A60936001FA
:1004600070936101809362019093630160916001D8
:100470007091610180916201909163010E94150B5E
:100480007093760160937501FF90EF90DF90CF90AD
:10049000BF90AF909F908F900895CF93DF93C4E665
:1004A000D1E085E0EDE0F1E0DE0101900D928A956A
:1004B000E1F78BE80E942407CE010E945D0780913E
:1004C0003601909137019F938F9382E191E09F9342
:1004D0008F93DF93CF930E94EA0C8AE80E9424074F
:1004E000CE010E945D070F900F900F900F900F901C
:1004F0000F90DF91CF910895CF93DF93C4E6D1E0C1
:1005000085E0EDE0F1E0DE0101900D928A95E1F7E2
:100510008BEC0E942407CE010E945D07809175013B
:10052000909176019F938F9382E191E09F938F93B7
:10053000DF93CF930E94EA0C8AEC0E942407CE013D
:100540000E945D070F900F900F900F900F900F90EB
:10055000DF91CF91089510923201109233011092E1
:1005600034011092350110926001109261011092D5
:100570006201109263010895CF93609132017091EE
:1005800033018091340190913501C1E020E030E0E9
:10059000A9010E949E0A8111C0E08C2FCF9108957D
:1005A0006093250170932601809327019093280181
:1005B0000895CF92DF92EF92FF92CF93DF93C0E046
:1005C000D0E0C12CD12C7601FE01EE0FFF1FEE0F03
:1005D000FF1FE85CFE4F608171818281938120E082
:1005E00030E040E251E40E94A30A9B01AC01C70144
:1005F000B6010E941B0A6B017C012196CA30D1050D
:1006000019F7DF91CF91FF90EF90DF90CF90089591
:100610006091250170912601809127019091280118
:1006200008951F920F920FB60F9211248F939F93EC
:1006300081E080936E018CE89CE39093700180933D
:100640006F0110926001109261011092620110928C
:10065000630110927601109275011092320110928E
:10066000330110923401109235011092370110922B
:10067000360110927F011092800110928101109238
:1006800082011092770110927801109279011092F4
:100690007A019F918F910F900FBE0F901F90189528
:1006A000A0E0B0E0BC01CD0160547C498109910912
:1006B00020EA30E040E050E00E94A90C822F90E058
:1006C00008952F923F924F925F926F927F928F92F6
:1006D0009F92AF92BF92CF92DF92EF92FF920F93D1
:1006E0001F93CF93DF93CDB7DEB729970FB6F8945A
:1006F000DEBF0FBECDBF382E0E94D9026B017C0138
:100700000E9408036D837E838F83988720E030E406
:100710004CE955E4C701B6010E94370C88230CF060
:10072000FFC020E030E044ED52E4C701B6010E9472
:10073000A30A4B015C010E946F058C010E94880591
:100740009A8389830E94A105282E20E030E040E2B0
:1007500052E4C501B4010E94370C88235CF0013ECD
:100760001B4A40F40F2E812C912CF0E2AF2EF2E4C4
:10077000BF2EF02D89819A81813F2AE0920790F067
:1007800085352BE09207C8F0893B9B4000F50F2E82
:10079000FDEC4F2EFCEC5F2EF4ED6F2EF0E47F2E7F
:1007A000F02D1DC00F2EF7E64F2EF6E65F2EFEEB66
:1007B0006F2EF0E47F2EF02D12C00F2EF9E94F2E90
:1007C000542CF9EC6F2EF0E47F2EF02D08C00F2E84
:1007D000412C512CF0EE6F2EF0E47F2EF02D87E7A8
:1007E000821550F42DEC3CEC4CE45EE3C301B20105
:1007F0000E943C0C2B013C0120E030E0A901C70124
:10080000B6010E949E0A811104C094E1931508F478
:1008100084C020E030E040EA50E4C501B4010E9409
:100820003C0C0E94150B698770E080E090E00E940C
:10083000460B4B015C01A301920160E070E08FE781
:1008400093E40E941A0A69837A838B839C839B01B9
:10085000AC01C501B4010E94370C882344F06981C2
:100860007A818B819C810E94150B69870CC020E0E6
:1008700030E040EE50E4C501B4010E949E0A181613
:1008800014F027E02987A32CB12C8985082F10E0CC
:10089000C301B2010E94150B6983C801860F911D27
:1008A0008A159B05BCF42F9A26E636E646E85FE3F8
:1008B0006D817E818F8198850E943C0CA7019601F5
:1008C0000E949E0A18160CF049C089859981890FEB
:1008D000898744C0B801110F880B990B0E94460B01
:1008E00020E030E040EE50E40E941A0A2B013C0167
:1008F000B501BB0C880B990B0E94460BA30192011A
:100900000E949E0A882334F4C301B2010E94150B91
:10091000698724C02F98398621C027E029871EC007
:100920000E946F058C010E9488059A8389830E942A
:10093000A105282E0F2EF3EE8F2EFDEA9F2EFCE34D
:10094000AF2EF2E4BF2EF02D0F2EC12CF0E4DF2EDF
:10095000FCE9EF2EF5E4FF2EF02D01CFC701B60123
:100960000E94D002898529960FB6F894DEBF0FBE8B
:10097000CDBFDF91CF911F910F91FF90EF90DF904E
:10098000CF90BF90AF909F908F907F906F905F902F
:100990004F903F902F9008951F928F9382E191E0A6
:1009A0009F938F9383E891E09F938F930E94EA0C2B
:1009B00080EC0E94240783E891E00E945D070F907D
:1009C0000F900F900F900F900F9008951092CD0000
:1009D00087E68093CC00A9ECB0E08C9180618C9389
:1009E0008C9180688C938C9188608C93EAECF0E019
:1009F00080818F7B808380818F77808380818F7ED1
:100A000080838081806280838081877F80838081F2
:100A1000826080838081846080838C918B7F8C93C3
:100A200080818083089584B58F7B84BD84B58F7762
:100A300084BD84B58E7F84BD84B58D7F84BD85B52E
:100A4000877F85BD85B58E7F85BD85B58D7F85BD4D
:100A500085B5846085BD84E687BDEEE6F0E08081E3
:100A6000826080830895E1E9F1E0808180939001C4
:100A7000818190E090938F0180938E0122818091FB
:100A80008E0190918F01922B90938F0180938E0114
:100A9000838190E090932A018093290124818091A1
:100AA000290190912A01922B90932A018093290188
:100AB0000895A9E8B1E08C91E1E9F1E08083119615
:100AC0008C911197818312968C9112978283139641
:100AD0008C911397838314968C91848308958091CD
:100AE000290190912A0180349C4960F0809129016C
:100AF00090912A01813C9A4D40F480912901909176
:100B00002A01089580E89BEB089580E89BEB089507
:100B100080918E0190918F01803F9A4060F080918A
:100B20008E0190918F01893D9E4040F480918E010D
:100B300090918F01089584EE9CE0089584EE9CE0EE
:100B4000089580919001813A18F480919001089560
:100B500084E108951F920F920FB60F9211242F93E4
:100B60003F934F935F936F937F938F939F93AF9335
:100B7000BF93EF93FF9380912D01813021F48091F9
:100B80002B01853020F480912C018823B1F0109244
:100B90002B0116BCE0912C01F0E08091CE00E757CC
:100BA000FE4F808380912C01843011F40E945905FE
:100BB00080912C018F5F80932C01FF91EF91BF9169
:100BC000AF919F918F917F916F915F914F913F91E5
:100BD0002F910F900FBE0F901F9018951F920F929C
:100BE0000FB60F9211242F933F934F935F936F9300
:100BF0007F938F939F93AF93BF93EF93FF9316BC15
:100C000081E080932D0110922C0180912B018F5F48
:100C100080932B01823011F40E94330580912B01C7
:100C20008B3F18F08AEF80932B01FF91EF91BF91DA
:100C3000AF919F918F917F916F915F914F913F9174
:100C40002F910F900FBE0F901F901895009769F08D
:100C500020E030E0EFE9FFE03197F1F700C000005D
:100C60002F5F3F4F82179307A9F70895899A8998B4
:100C7000089582E390E00E9426068998289881B31F
:100C80008F7381BB81B3806381BB0E9436068FE383
:100C90009CE90197F1F700C0000081B38F7381BB1D
:100CA00081B3806381BB0E9436068FE39CE9019784
:100CB000F1F700C0000081B38F7381BB81B3806303
:100CC00081BB0E9436068FE39CE90197F1F700C0D3
:100CD000000081B38F7281BB8D9A0E9436068FE32C
:100CE0009CE90197F1F700C0000081B38F7281BBCE
:100CF0008D9A0E9436068FE39CE90197F1F700C0B8
:100D000000008F9A81B38F7881BB0E9436068FE3F3
:100D10009CE90197F1F700C0000081B38F7081BB9F
:100D20000E9436068FE39CE90197F1F700C00000AE
:100D30008F9A81B38F7881BB0E9436068FE39CE93E
:100D40000197F1F700C0000081B38F7081BB0E9452
:100D500036068FE39CE90197F1F700C0000081B3EC
:100D60008F7181BB8C9A0E9436068FE39CE90197B4
:100D7000F1F700C0000081B38F7081BB0E9436067E
:100D80008FE39CE90197F1F700C0000081B38F73F6
:100D900081BB81B3806381BB0E9436068FE39CE9EF
:100DA0000197F1F700C0000081B38F7081BB0E94F2
:100DB00036068FE39CE90197F1F700C0000081B38C
:100DC000806F81BB0E9436068FE39CE90197F1F7A3
:100DD00000C000000895CF93C82F289A882314F4E8
:100DE0008F9A01C08F98C6FF02C08E9A01C08E985C
:100DF000C5FF02C08D9A01C08D98C4FF02C08C9AB5
:100E000001C08C980E94360681E090E00E94260680
:100E1000C3FF02C08F9A01C08F98C2FF02C08E9A92
:100E200001C08E98C1FF02C08D9A01C08D98C0FF8D
:100E300002C08C9A01C08C980E94360681E090E036
:100E40000E942606CF910895CF93C82F2898882313
:100E500014F48F9A01C08F98C6FF02C08E9A01C009
:100E60008E98C5FF02C08D9A01C08D98C4FF02C044
:100E70008C9A01C08C980E94360681E090E00E9416
:100E80002606C3FF02C08F9A01C08F98C2FF02C01E
:100E90008E9A01C08E98C1FF02C08D9A01C08D98B4
:100EA000C0FF02C08C9A01C08C980E94360681E077
:100EB00090E00E942606CF910895CF93DF93EC0136
:100EC0008881882331F021960E94EB068991811157
:100ED000FBCFDF91CF91089580E80E94240785E140
:100EE00091E00E945D078FE80E9424078BE191E06A
:100EF0000E945D078FEC0E9424078FE191E00E9421
:100F00005D070895E1E9F0E0808181608083808160
:100F10008260808380818B7F8083E1E7F0E0808145
:100F20008260808384EC99E090939900809398008C
:100F30000895E1E6F0E080E88083108285B780685C
:100F400085BF85B7806885BF3F9A3E9A269A259AC5
:100F5000579A569A21982298239829982A982B983C
:100F600024982C9A6E9A76988098209A819A879ADB
:100F7000869A859A849A5A9A549A5098589A279A97
:100F80000E946C080E942B080E9489080E9475002C
:100F90000E94E6040E9413050E9482070E943906FF
:100FA0008CE00E9424070E94BD0878940E946C0780
:100FB0000E94A409809396018111FFCF2FEF87EA49
:100FC00091E6215080409040E1F700C00000769803
:100FD0000E94AB0210922F0180912F018A30E0F322
:100FE0000E946F0590939A01809399010E948D0150
:100FF0008091990190919A010E94500380932E0153
:101000000E94CC040E94A10590E0909398018093E7
:1010100097010E944D020E947C0210922F01DCCFAA
:101020001F920F920FB60F9211248F93109295007A
:101030001092940080912F01893110F010922F01AD
:1010400080912F018F5F80932F018F910F900FBEA2
:101050000F901F901895CF93DF93E1ECF0E0808123
:101060008E7F808380818D7F808380818460808378
:101070008081877F8083A0ECB0E08C9182608C932C
:10108000C3ECD0E088818E7F8883888182608883EA
:101090008C9180648C938C918F778C938C918061F0
:1010A0008C938C918F7D8C93A2ECB0E08C918460BA
:1010B0008C938C91877F8C9380818F7E80838081BD
:1010C0008F7D80838FEF8093D1001092C400809336
:1010D000D400DF91CF910895E8E6F0E0808181604F
:1010E0008083EBE6F0E08081826080838081846091
:1010F0008083808188608083808180618083E9E64D
:10110000F0E080818160808380818D7F8083E89A98
:101110000895ECE7F0E080818064808380818F77A0
:10112000808380818062808380818E7F80838081C4
:101130008D7F808380818B7F80838081877F808388
:1011400080818F7E8083EBE7F0E080818F7D8083DC
:10115000EAE7F0E080818068808380818860808316
:1011600080818E7F808380818260808380818460A3
:101170008083808180648083089583B18E7086959A
:1011800080939D010E94BC02882349F01C9904C0F1
:1011900081E080930C0108C010920C016DC0809119
:1011A0000C01882309F468C080919D01833049F1C6
:1011B00028F48130C1F0823091F15BC0853029F094
:1011C00008F449C08630C9F154C0E4ECF0E0108264
:1011D00085B18F7985B98BB18F7380648BB980812C
:1011E000836080830895E4ECF0E0108288B18F730F
:1011F00088B98BB18F7380648BB980818C60808358
:101200000895E4ECF0E010828BB18F738BB988B154
:101210008F73806488B980818C6080830895E4EC4A
:10122000F0E0108285B18F7985B988B18F738064C1
:1012300088B98081806380830895E4ECF0E01082B7
:1012400088B18F7388B985B18F79806285B98081C3
:10125000806380830895E4ECF0E010828BB18F739B
:101260008BB985B18F79806285B9808183608083F5
:1012700008951092C400089580919D01833049F132
:1012800028F48130C1F0823091F15BC0853029F0C3
:1012900008F449C08630C9F154C0E4ECF0E0108293
:1012A00085B18F7985B988B18F73806488B9808161
:1012B000806380830895E4ECF0E0108288B18F733E
:1012C00088B985B18F79806285B980818063808398
:1012D0000895E4ECF0E010828BB18F738BB985B187
:1012E0008F79806285B98081836080830895E4EC82
:1012F000F0E0108285B18F7985B98BB18F738064EE
:101300008BB98081836080830895E4ECF0E01082E3
:1013100088B18F7388B98BB18F7380648BB98081EA
:101320008C6080830895E4ECF0E010828BB18F73C1
:101330008BB988B18F73806488B980818C60808319
:1013400008951092C400089580919C0108951F9201
:101350000F920FB60F9211242F933F934F935F93E9
:101360006F937F938F939F93AF93BF93EF93FF936D
:101370000E94BD080E9486000E949300FF91EF9199
:10138000BF91AF919F918F917F916F915F914F919D
:101390003F912F910F900FBE0F901F9018951F92A5
:1013A0000F920FB60F9211242F933F934F935F9399
:1013B0006F937F938F939F93AF93BF93CF93DF935D
:1013C000EF93FF938091780080939E018091790044
:1013D00080939C0180913001843188F0109230011B
:1013E000CFECD0E08881809331015C9A609131012B
:1013F00080919C010E94610388835C9803C08F5F89
:1014000080933001EAE7F0E0808180648083FF917F
:10141000EF91DF91CF91BF91AF919F918F917F918C
:101420006F915F914F913F912F910F900FBE0F9051
:101430001F9018955058BB27AA270E94320A0C9477
:10144000E50B0E94D70B38F00E94DE0B20F039F438
:101450009F3F19F426F40C94D40B0EF4E095E7FBAF
:101460000C94A50BE92F0E94F60B58F3BA176207EC
:1014700073078407950720F079F4A6F50C94300CD7
:101480000EF4E0950B2EBA2FA02D0B01B90190019F
:101490000C01CA01A0011124FF27591B99F0593FE3
:1014A00050F4503E68F11A16F040A22F232F342F2B
:1014B0004427585FF3CF469537952795A795F04079
:1014C0005395C9F77EF41F16BA0B620B730B840B8E
:1014D000BAF09150A1F0FF0FBB1F661F771F881F46
:1014E000C2F70EC0BA0F621F731F841F48F487959E
:1014F00077956795B795F7959E3F08F0B0CF939590
:10150000880F08F09927EE0F9795879508950E9408
:10151000180C90F09F3748F4911116F40C94310C8C
:1015200060E070E080E89FE3089526F01B16611DDF
:10153000711D811D0C94AB0B0C94C60B0E94810B8A
:1015400008F481E008950E94B70A0C94E50B0E940C
:10155000DE0B58F00E94D70B40F029F45F3F29F0D2
:101560000C94A50B51110C94310C0C94D40B0E94CB
:10157000F60B68F39923B1F3552391F3951B550BA3
:10158000BB27AA2762177307840738F09F5F5F4F56
:10159000220F331F441FAA1FA9F335D00E2E3AF095
:1015A000E0E832D091505040E695001CCAF72BD0AD
:1015B000FE2F29D0660F771F881FBB1F26173707FE
:1015C0004807AB07B0E809F0BB0B802DBF01FF2730
:1015D00093585F4F3AF09E3F510578F00C94A50B5D
:1015E0000C94310C5F3FE4F3983ED4F386957795E5
:1015F0006795B795F7959F5FC9F7880F911D9695E9
:10160000879597F90895E1E0660F771F881FBB1F44
:10161000621773078407BA0720F0621B730B840BF1
:10162000BA0BEE1F88F7E09508950E94FE0B88F034
:101630009F5798F0B92F9927B751B0F0E1F0660F96
:10164000771F881F991F1AF0BA95C9F714C0B130D7
:1016500091F00E94300CB1E008950C94300C672F8B
:10166000782F8827B85F39F0B93FCCF38695779506
:101670006795B395D9F73EF49095809570956195EF
:101680007F4F8F4F9F4F0895E89409C097FB3EF41A
:1016900090958095709561957F4F8F4F9F4F9923BF
:1016A000A9F0F92F96E9BB279395F695879577953D
:1016B0006795B795F111F8CFFAF4BB0F11F460FFFD
:1016C0001BC06F5F7F4F8F4F9F4F16C0882311F055
:1016D00096E911C0772321F09EE8872F762F05C069
:1016E000662371F096E8862F70E060E02AF09A9504
:1016F000660F771F881FDAF7880F9695879597F9F9
:101700000895990F0008550FAA0BE0E8FEEF161692
:101710001706E807F907C0F012161306E407F507E5
:1017200098F0621B730B840B950B39F40A2661F059
:10173000232B242B252B21F408950A2609F4A140FC
:10174000A6958FEF811D811D089597F99F6780E809
:1017500070E060E00895882371F4772321F09850B9
:10176000872B762F07C0662311F499270DC090515F
:10177000862B70E060E02AF09A95660F771F881F2D
:10178000DAF7880F9695879597F908959F3F31F07E
:10179000915020F4879577956795B795880F911D9F
:1017A0009695879597F908959FEF80EC089500240A
:1017B0000A941616170618060906089500240A94B6
:1017C00012161306140605060895092E0394000C3C
:1017D00011F4882352F0BB0F40F4BF2B11F460FFCB
:1017E00004C06F5F7F4F8F4F9F4F089557FD9058F4
:1017F000440F551F59F05F3F71F04795880F97FBD5
:10180000991F61F09F3F79F087950895121613068E
:101810001406551FF2CF4695F1DF08C016161706BD
:101820001806991FF1CF86957105610508940895F2
:101830000E94FE0BA0F0BEE7B91788F4BB279F38C3
:1018400060F41616B11D672F782F8827985FF7CFA1
:10185000869577956795B11D93959639C8F3089548
:10186000E894BB2766277727CB0197F908950E9454
:10187000810B08F48FEF08950E944F0C0C94E50B38
:101880000E94D70B38F00E94DE0B20F0952311F058
:101890000C94A50B0C94D40B11240C94310C0E94C5
:1018A000F60B70F3959FC1F3950F50E0551F629FA3
:1018B000F001729FBB27F00DB11D639FAA27F00DA9
:1018C000B11DAA1F649F6627B00DA11D661F829FD0
:1018D0002227B00DA11D621F739FB00DA11D621FB5
:1018E000839FA00D611D221F749F3327A00D611DD2
:1018F000231F849F600D211D822F762F6A2F1124B4
:101900009F5750409AF0F1F088234AF0EE0FFF1FE6
:10191000BB1F661F771F881F91505040A9F79E3F3D
:10192000510580F00C94A50B0C94310C5F3FE4F34F
:10193000983ED4F3869577956795B795F795E79593
:101940009F5FC1F7FE2B880F911D9695879597F99C
:101950000895052E97FB1EF400940E94C00C57FDBD
:1019600007D00E94C80C07FC03D04EF40C94C00CA6
:1019700050954095309521953F4F4F4F5F4F0895BB
:1019800090958095709561957F4F8F4F9F4F0895EB
:10199000A1E21A2EAA1BBB1BFD010DC0AA1FBB1F73
:1019A000EE1FFF1FA217B307E407F50720F0A21BE5
:1019B000B30BE40BF50B661F771F881F991F1A9452
:1019C00069F760957095809590959B01AC01BD017C
:1019D000CF010895AEE0B0E0E0EFFCE00C94AB0F77
:1019E0000D891E8986E08C831A8309838FEF9FE718
:1019F0009E838D83AE01475E5F4F6F89788DCE01E8
:101A000001960E940C0DEF81F885E00FF11F108206
:101A10002E96E4E00C94C70FABE0B0E0E2E1FDE00D
:101A20000C949D0F6C017B018A01FC0117821682C8
:101A3000838181FFCCC1CE0101963C01F6019381E7
:101A4000F70193FD859193FF81917F01882309F42C
:101A5000BAC1853239F493FD859193FF81917F015D
:101A6000853229F4B60190E00E94030FE7CF912C54
:101A7000212C312CFFE1F315D8F08B3279F038F4BA
:101A8000803279F08332A1F4232D20611DC08D3284
:101A900061F0803369F4232D216016C0832D8260AC
:101AA000382EE32DE4603E2E2AC0F32DF8601DC0D1
:101AB00037FC2DC020ED280F2A3040F08E32B9F4CB
:101AC00036FC81C1232D2064322E19C036FE06C09B
:101AD0008AE0989E200D1124922E11C0EAE02E9EDD
:101AE000200D1124222EF32DF0623F2E08C08C36DB
:101AF00021F4832D8068382E02C0883641F4F70126
:101B000093FD859193FF81917F018111B3CF982F30
:101B10009F7D9554933028F40C5F1F4F9FE399836A
:101B20000DC0833631F0833771F0833509F059C029
:101B300021C0F801808189830E5F1F4F8824839420
:101B4000912C530113C02801F2E04F0E511CF801F3
:101B5000A080B18036FE03C0692D70E002C06FEF37
:101B60007FEFC5010E94F80E4C018201F32DFF7733
:101B70003F2E16C0280122E0420E511CF801A08021
:101B8000B18036FE03C0692D70E002C06FEF7FEFB9
:101B9000C5010E94ED0E4C01F32DF0683F2E82012D
:101BA00033FC1BC0822D90E088169906B0F4B60174
:101BB00080E290E00E94030F2A94F4CFF50137FCF5
:101BC000859137FE81915F01B60190E00E94030F7D
:101BD00021102A9421E0821A91088114910471F74E
:101BE000E8C0843611F0893641F5F80137FE07C0A8
:101BF00060817181828193810C5F1F4F08C0608179
:101C00007181072E000C880B990B0E5F1F4FF32D6F
:101C1000FF763F2E97FF09C090958095709561954E
:101C20007F4F8F4F9F4FF0683F2E2AE030E0A30197
:101C30000E943F0F882E861845C0853731F4232D2A
:101C40002F7EB22E2AE030E025C0932D997FB92E49
:101C50008F36C1F018F4883579F0B5C0803719F0A7
:101C6000883721F0B0C0E92FE061BE2EB4FE0DC070
:101C7000FB2DF460BF2E09C034FE0AC0292F266058
:101C8000B22E06C028E030E005C020E130E002C0FE
:101C900020E132E0F801B7FE07C0608171818281E6
:101CA00093810C5F1F4F06C06081718180E090E0DE
:101CB0000E5F1F4FA3010E943F0F882E8618FB2D39
:101CC000FF773F2E36FE0DC0232D2E7FA22E8914C6
:101CD00058F434FE0BC032FC09C0832D8E7EA82E32
:101CE00005C0B82CA32C03C0B82C01C0B92CA4FE8D
:101CF0000FC0FE01E80DF11D8081803321F49A2D83
:101D0000997EA92E09C0A2FE06C0B394B39404C064
:101D10008A2D867809F0B394A3FC11C0A0FE06C0FA
:101D2000B21488F4280C922C9B180EC0B21460F4E4
:101D3000B60180E290E00E94030FB394F7CFB21493
:101D400018F42B1802C0982C212CA4FE10C0B60148
:101D500080E390E00E94030FA2FE17C0A1FC03C025
:101D600088E790E002C088E590E0B6010CC08A2DBB
:101D7000867859F0A1FE02C08BE201C080E2A7FC88
:101D80008DE2B60190E00E94030F891438F4B60189
:101D900080E390E00E94030F9A94F7CF8A94F301B6
:101DA000E80DF11D8081B60190E00E94030F8110C3
:101DB000F5CF222009F442CEB60180E290E00E94E5
:101DC000030F2A94F6CFF6018681978102C08FEF28
:101DD0009FEF2B96E2E10C94B90FFC010590615046
:101DE00070400110D8F7809590958E0F9F1F089531
:101DF000FC016150704001900110D8F780959095DA
:101E00008E0F9F1F08950F931F93CF93DF93FB01B6
:101E1000238121FD03C08FEF9FEF2CC022FF16C04E
:101E200046815781248135814217530744F4A081AC
:101E3000B1819D012F5F3F4F318320838C93268199
:101E400037812F5F3F4F3783268314C08B01EC010E
:101E5000FB010084F185E02D0995892BE1F6D8017D
:101E600016968D919C911797019617969C938E9339
:101E70001697CE01DF91CF911F910F910895FA012E
:101E8000AA27283051F1203181F1E8946F936E7FB9
:101E90006E5F7F4F8F4F9F4FAF4FB1E03ED0B4E0AA
:101EA0003CD0670F781F891F9A1FA11D680F791FEB
:101EB0008A1F911DA11D6A0F711D811D911DA11DFC
:101EC00020D009F468943F912AE0269F112430190C
:101ED000305D3193DEF6CF010895462F4770405DA7
:101EE0004193B3E00FD0C9F7F6CF462F4F70405D56
:101EF0004A3318F0495D31FD4052419302D0A9F7B1
:101F0000EACFB4E0A6959795879577956795BA95AA
:101F1000C9F700976105710508959B01AC010A2E70
:101F200006945795479537952795BA95C9F7620F47
:101F3000731F841F951FA01D08952F923F924F92EB
:101F40005F926F927F928F929F92AF92BF92CF9249
:101F5000DF92EF92FF920F931F93CF93DF93CDB752
:101F6000DEB7CA1BDB0B0FB6F894DEBF0FBECDBFCA
:101F700009942A88398848885F846E847D848C849B
:101F80009B84AA84B984C884DF80EE80FD800C81A4
:101F90001B81AA81B981CE0FD11D0FB6F894DEBF87
:0C1FA0000FBECDBFED010895F894FFCFF7
:101FAC00CDCC4C3E0000803F0300040001202020DB
:101FBC002000256400416B6B753A00552F6D006B4A
:041FCC006D2F68000D
:040000050080012D49
:00000001FF
