S0130000616E737465756572756E672E7372656360
S11300000C9456000C9473000C9473000C947300BD
S11300100C9473000C9473000C9473000C94730090
S11300200C9473000C94D5090C9473000C94730015
S11300300C9473000C9473000C9473000C94730070
S11300400C9473000C9473000C9473000C94730060
S11300500C94E2020C9431060C9473000C9473001B
S11300600C9473000C94ED050C9473000C947300C1
S11300700C9473000C940D0A0C9473000C9473008C
S11300800C9447080C9473000C9473000C94730044
S11300900C9473000C9473000C9473000C94730010
S11300A00C9473000C9473000C94730011241FBE01
S11300B0CFEFDAE0DEBFCDBF11E0A0E0B1E0EAE4CB
S11300C0F0E202C005900D92AC32B107D9F721E0FD
S11300D0ACE2B1E001C01D92A539B207E1F70E947C
S11300E0E3070C9423100C940000E1E8F0E0808115
S11300F08160808380818260808380818B7F808324
S1130100EFE6F0E0808181608083089510925301CE
S1130110E4E8F0E08081918190935501809354014B
S11301201182108208958F929F92AF92BF92CF92C4
S1130130DF92EF92FF92809153018823F9F088E9CE
S11301409AE39093550180935401109233011092D5
S1130150340110923501109236011092640110920C
S11301606501109266011092670110925C01109271
S11301705D0110925E0110925F01CFC08091540125
S113018090915501889708F4C8C0809154019091CA
S113019055018C389C4330F08CE89CE390935501D6
S11301A080935401209154013091550180910A01AA
S11301B090910B01289FB001299F700D389F700DFD
S11301C0112480E090E00E94840B60935C017093A2
S11301D05D0180935E0190935F0160915C01709179
S11301E05D0180915E0190915F0120E030E048EC78
S11301F052E40E94E30A60935C0170935D01809372
S11302005E0190935F0180905C0190905D01A090ED
S11302105E01B0905F016091080170910901072EA1
S1130220000C880B990B0E94860B6B017C0120E06B
S113023030E040EC50E4C501B4010E947C0C9B0109
S1130240AC01C701B6010E947C0C609360017093FD
S113025061018093620190936301609160017091E8
S11302606101809162019091630120E030E040E2FD
S113027051E40E94E30A60936001709361018093EA
S1130280620190936301209160013091610140917A
S113029062015091630160E070E08AE794E40E9497
S11302A0E30A6093640170936501809366019093FF
S11302B0670160916401709165018091660190917C
S11302C0670120E030E040E752E40E947C0C609338
S11302D033017093340180933501909336018091FA
S11302E02C01E82FF0E040913301509134016091EA
S11302F0350170913601EE0FFF1FEE0FFF1FE75C13
S1130300FE4F40835183628373838F5F833018F47D
S113031080932C0102C010922C01FF90EF90DF908B
S1130320CF90BF90AF909F908F9008958F929F929F
S1130330AF92BF92CF92DF92EF92FF9280915301DE
S1130340882329F11092550110925401109245010D
S11303501092460110924701109248011092330105
S113036010923401109235011092360110926401FA
S113037010926501109266011092670110925C015F
S113038010925D0110925E0110925F0186C060912F
S113039033017091340180913501909136010E94AE
S11303A0550B70933801609337016091640170912B
S11303B065018091660190916701809000019090A1
S11303C00101A0900201B0900301C0900401D090FB
S11303D00501E0900601F0900701A50194010E9437
S11303E07C0C23EC35EF48E450E40E947C0CA7011C
S11303F096010E94E30A26E636E646E650E40E94A9
S11304007C0C60935601709357018093580190932C
S11304105901209164013091650140916601509128
S11304206701C501B4010E947C0C23EC35EF48E45C
S113043050E40E947C0CA70196010E94E30A26E680
S113044036E646E650E40E947C0C609356017093B5
S1130450570180935801909359016091560170910E
S1130460570180915801909159010E94C70A6093E5
S11304704501709346018093470190934801609130
S113048045017091460180914701909148010E9475
S1130490550B70935B0160935A01FF90EF90DF90CE
S11304A0CF90BF90AF909F908F900895CF93DF939C
S11304B0C9E4D1E085E0E2E1F1E0DE0101900D92D2
S11304C08A95E1F78BE80E946707CE010E94A00796
S11304D080913701909138019F938F9387E191E048
S11304E09F938F93DF93CF930E94390D8AE80E94E4
S11304F06707CE010E94A0070F900F900F900F90F6
S11305000F900F90DF91CF910895CF93DF93C9E4BB
S1130510D1E085E0E2E1F1E0DE0101900D928A95FF
S1130520E1F78BEC0E946707CE010E94A00780913F
S11305305A0190915B019F938F9387E191E09F9380
S11305408F93DF93CF930E94390D8AEC0E94670743
S1130550CE010E94A0070F900F900F900F900F9064
S11305600F90DF91CF9108951092330110923401CE
S113057010923501109236011092450110924601F5
S113058010924701109248010895CF93609133016E
S1130590709134018091350190913601C1E020E0E1
S11305A030E0A9010E94DE0A8111C0E08C2FCF91B6
S11305B008956091330170913401809135019091D7
S11305C0360108951F920F920FB60F9211248F9344
S11305D09F9381E0809353018CE89CE390935501B1
S11305E080935401109245011092460110924701E4
S11305F01092480110925B0110925A01109233013B
S11306001092340110923501109236011092380183
S113061010923701109264011092650110926601E4
S11306201092670110925C0110925D0110925E01BC
S113063010925F019F918F910F900FBE0F901F90AA
S11306401895A0E0B0E0BC01CD0160547C4981095B
S1130650910920EA30E040E050E00E94E90C822F4A
S113066090E008952F923F924F925F926F927F9203
S11306708F929F92AF92BF92CF92DF92EF92FF92AE
S11306800F931F93CF93DF93382E0E94D9026B01EF
S11306907C0120E030E44CE955E40E94770C882387
S11306A00CF000C120E030E044ED52E4C701B60193
S11306B00E94E30A4B015C010E94B2058C010E9476
S11306C0CB05EC010E94E405282E20E030E040E256
S11306D052E4C501B4010E94770C88235CF0013E0A
S11306E01B4A40F40F2E812C912CF0E2AF2EF2E441
S11306F0BF2EF02D6091330170913401809135014A
S11307009091360122E430E645E65BE30E947C0CDE
S11307109B01AC0160E070E080E691E40E945A0A1B
S113072020E030E040EE50E40E945B0A2B013C01E3
S113073020E030E0A9010E94DE0A18161CF0412CCA
S1130740512C3201C23F8AE0D80758F42AE939E92A
S113075049E15FE3C301B2010E947C0C2B013C011F
S11307601CC0C5358BE0D80758F426E636E646E2C9
S11307705FE3C301B2010E947C0C2B013C010DC05C
S1130780C93BDB4050F423E333E343E35FE3C301BA
S1130790B2010E947C0C2B013C0186E3821550F4CB
S11307A02DEC3CEC4CE45EE3C301B2010E947C0CF2
S11307B02B013C0120E030E0A901C701B6010E94F1
S11307C0DE0A811104C084E1831508F466C020E0C8
S11307D030E040EA50E4C501B4010E947C0C0E9460
S11307E0550BC62F70E080E090E00E94860B6B01F1
S11307F07C01A301920160E070E08FE793E40E9422
S11308005A0A4B015C019B01AC01C701B6010E946D
S1130810770C882334F0C501B4010E94550BC62F10
S11308200BC020E030E040E251E4C701B6010E9471
S1130830DE0A18160CF0CAE0E32CF12C0C2F10E0A1
S1130840C301B2010E94550BC801860F911D8E157C
S11308509F051CF43C2E360E42C0B801110F880BC4
S1130860990B0E94860B20E030E040E251E40E94A4
S11308705A0A4B015C01B701FF0C880B990B0E94CB
S1130880860BA50194010E94DE0A882344F5C50164
S1130890B4010E94550B362E22C00F2EFEE03F2ECF
S11308A0F02D1DC00E94B2058C010E94CB05EC0105
S11308B00E94E405282E0F2EF3EE8F2EFDEA9F2EC4
S11308C0FCE3AF2EF2E4BF2EF02D0F2EC12CF0E48A
S11308D0DF2EFCE9EF2EF5E4FF2EF02D00CF832D63
S11308E0DF91CF911F910F91FF90EF90DF90CF9008
S11308F0BF90AF909F908F907F906F905F904F903C
S11309003F902F9008951F928F9387E191E09F93DA
S11309108F9388E691E09F938F930E94390D80EC2A
S11309200E94670788E691E00E94A0070F900F904D
S11309300F900F900F900F9008951092CD0087E6BE
S11309408093CC00A9ECB0E08C9180618C938C9165
S113095080688C938C9188608C93EAECF0E08081C1
S11309608F7B808380818F77808380818F7E80835B
S11309708081806280838081877F808380818260A0
S113098080838081846080838C918B7F8C93808131
S11309908083089584B58F7B84BD84B58F7784BDAF
S11309A084B58E7F84BD84B58D7F84BD85B5877FF6
S11309B085BD85B58E7F85BD85B58D7F85BD85B5A6
S11309C0846085BD84E687BDEEE6F0E080818260C8
S11309D080830895CF93DF93E0912D01F0E0CCE87C
S11309E0D1E08881E358FE4F8083E0912D01F0E04F
S11309F0898190E0EE0FFF1FEE57FE4F91838083B5
S1130A00E0912D01F0E0A0912D01B0E0AA0FBB1FF1
S1130A10AE57BE4F8D919C912A81922BEE0FFF1FF2
S1130A20EE57FE4F91838083E0912D01F0E08B819E
S1130A3090E0EE0FFF1FED58FE4F91838083E0910D
S1130A402D01F0E0A0912D01B0E0AA0FBB1FAD581D
S1130A50BE4F8D919C912C81922BEE0FFF1FED5870
S1130A60FE4F9183808380912D018F5F80932D01B0
S1130A7080912D01853010F010922D01DF91CF91DE
S1130A8008951F93CF93DF9340E050E01DECFA01EB
S1130A90E358FE4F908120910E01919F812D1124E6
S1130AA086958695820F80930E01FA01EE0FFF1F43
S1130AB0DF01AE57BE4F2D913C91C0910F01D091F3
S1130AC01001ADECBCEC0E94080D969587959695A7
S1130AD08795C80FD91FD0931001C0930F01ED580B
S1130AE0FE4F20813181E0910C01F0910D010E94B3
S1130AF0080D9695879596958795E80FF91FF093BD
S1130B000D01E0930C014F5F5F4F4530510509F033
S1130B10BECFE0912D01F0E0EE0FFF1FEE57FE4F28
S1130B2080819181803F9A4019F485B1805885B9BC
S1130B30DF91CF911F910895AEE6B1E08C91ECE87E
S1130B40F1E0808311968C911197818312968C9198
S1130B501297828313968C911397838314968C91A6
S1130B608483089580910C0190910D0180349C49F7
S1130B7060F080910C0190910D01813C9A4D40F4FC
S1130B8080910C0190910D01089580E89BEB0895EC
S1130B9080E89BEB089580910F0190911001803FB4
S1130BA09A4060F080910F0190911001893D9E4020
S1130BB040F480910F0190911001089584EE9CE01F
S1130BC0089584EE9CE0089580910E018D3318F40D
S1130BD080910E01089584E108951F920F920FB63B
S1130BE00F9211242F933F934F935F936F937F93AF
S1130BF08F939F93AF93BF93EF93FF9380913001B3
S1130C00813021F480912E01853020F480912F01D0
S1130C108823B1F010922E0116BCE0912F01F0E070
S1130C208091CE00E259FE4F808380912F01843061
S1130C3011F40E949C0580912F018F5F80932F01F6
S1130C40FF91EF91BF91AF919F918F917F916F91A0
S1130C505F914F913F912F910F900FBE0F901F9076
S1130C6018951F920F920FB60F9211242F933F9352
S1130C704F935F936F937F938F939F93AF93BF93A0
S1130C80EF93FF9316BC81E08093300110922F0103
S1130C9080912E018F5F80932E01823011F40E9487
S1130CA0EA0480912E018B3F18F08AEF80932E0185
S1130CB0FF91EF91BF91AF919F918F917F916F9130
S1130CC05F914F913F912F910F900FBE0F901F9006
S1130CD01895009769F020E030E0EFE9FFE03197E4
S1130CE0F1F700C000002F5F3F4F82179307A9F769
S1130CF00895899A8998089582E390E00E9469068C
S1130D008998289881B38F7381BB81B3806381BB39
S1130D100E9479068FE39CE90197F1F700C0000077
S1130D2081B38F7381BB81B3806381BB0E947906D9
S1130D308FE39CE90197F1F700C0000081B38F7342
S1130D4081BB81B3806381BB0E9479068FE39CE9F8
S1130D500197F1F700C0000081B38F7281BB8D9AB7
S1130D600E9479068FE39CE90197F1F700C0000027
S1130D7081B38F7281BB8D9A0E9479068FE39CE9BF
S1130D800197F1F700C000008F9A81B38F7881BB7F
S1130D900E9479068FE39CE90197F1F700C00000F7
S1130DA081B38F7081BB0E9479068FE39CE9019720
S1130DB0F1F700C000008F9A81B38F7881BB0E9445
S1130DC079068FE39CE90197F1F700C0000081B335
S1130DD08F7081BB0E9479068FE39CE90197F1F73C
S1130DE000C0000081B38F7181BB8C9A0E94790688
S1130DF08FE39CE90197F1F700C0000081B38F7085
S1130E0081BB0E9479068FE39CE90197F1F700C04A
S1130E10000081B38F7381BB81B3806381BB0E9467
S1130E2079068FE39CE90197F1F700C0000081B3D4
S1130E308F7081BB0E9479068FE39CE90197F1F7DB
S1130E4000C0000081B3806F81BB0E9479068FE3EC
S1130E509CE90197F1F700C000000895CF93C82FD3
S1130E60289A882314F48F9A01C08F98C6FF02C071
S1130E708E9A01C08E98C5FF02C08D9A01C08D98CC
S1130E80C4FF02C08C9A01C08C980E94790681E04C
S1130E9090E00E946906C3FF02C08F9A01C08F9838
S1130EA0C2FF02C08E9A01C08E98C1FF02C08D9A03
S1130EB001C08D98C0FF02C08C9A01C08C980E941A
S1130EC0790681E090E00E946906CF910895CF935E
S1130ED0C82F2898882314F48F9A01C08F98C6FFCE
S1130EE002C08E9A01C08E98C5FF02C08D9A01C0BF
S1130EF08D98C4FF02C08C9A01C08C980E94790618
S1130F0081E090E00E946906C3FF02C08F9A01C08D
S1130F108F98C2FF02C08E9A01C08E98C1FF02C092
S1130F208D9A01C08D98C0FF02C08C9A01C08C9824
S1130F300E94790681E090E00E946906CF910895AD
S1130F40CF93DF93EC018881882331F021960E94AE
S1130F502E0789918111FBCFDF91CF91089580E80D
S1130F600E9467078AE191E00E94A00783EC0E9437
S1130F70670780E291E00E94A0078FE80E9467075C
S1130F8082E291E00E94A0078FEC0E94670786E24C
S1130F9091E00E94A0070895E1E9F0E0808181607A
S1130FA0808380818260808380818B7F8083E1E77E
S1130FB0F0E080818260808384EC99E090939900D2
S1130FC0809398000895E1E6F0E080E88083108241
S1130FD085B7806885BF85B7806885BF3F9A3E9A8C
S1130FE0269A259A579A569A2198229823982998AE
S1130FF02A982B9824982C9A6E9A76988098209AFE
S1131000819A879A869A859A849A5A9A549A509879
S1131010589A279A0E94A3080E9462080E94C00856
S11310200E9475000E949D040E94CA040E94CC077D
S11310300E947C068CE00E9467070E94F408789462
S11310400E94AF072FEF87EA91E62150804090403D
S1131050E1F700C0000076980E94B40210923101BA
S11310600E944105809131018A30D0F30E94B2057B
S1131070EC010E949601CE010E9421030E94830488
S11310800E9456020E94850210923101E9CF1F92FC
S11310900F920FB60F9211248F9310929500109215
S11310A0940080913101893110F0109231018091C6
S11310B031018F5F809331018F910F900FBE0F909C
S11310C01F901895CF93DF93E1ECF0E080818E7F41
S11310D0808380818D7F8083808184608083808110
S11310E0877F8083A0ECB0E08C9182608C93C3EC0A
S11310F0D0E088818E7F88838881826088838C9108
S113110080648C938C918F778C938C9180618C9379
S11311108C918F7D8C93A2ECB0E08C9184608C9345
S11311208C91877F8C9380818F7E808380818F7D5B
S113113080838FEF8093D1001092C4008093D400F9
S1131140DF91CF910895E8E6F0E0808181608083AB
S1131150EBE6F0E08081826080838081846080831C
S1131160808188608083808180618083E9E6F0E00B
S113117080818160808380818D7F8083E89A089557
S1131180ECE7F0E080818064808380818F778083C6
S113119080818062808380818E7F808380818D7F47
S11311A0808380818B7F80838081877F808380811F
S11311B08F7E8083EBE7F0E080818F7D8083EAE798
S11311C0F0E0808180688083808188608083808172
S11311D08E7F80838081826080838081846080832D
S11311E0808180648083089583B18E708695809316
S11311F093010E94C502882349F01C9904C081E030
S11312008093110108C0109211016AC080911101EC
S1131210882309F465C080919301833049F128F44F
S11312208130C1F0823091F10895853029F008F4BD
S113123049C08630C9F10895E4ECF0E0108285B12C
S11312408F7985B98BB18F7380648BB9808183600A
S113125080830895E4ECF0E0108288B18F7388B93C
S11312608BB18F7380648BB980818C608083089587
S1131270E4ECF0E010828BB18F738BB988B18F737B
S1131280806488B980818C6080830895E4ECF0E008
S1131290108285B18F7985B988B18F73806488B9DC
S11312A08081806380830895E4ECF0E0108288B14B
S11312B08F7388B985B18F79806285B980818063A5
S11312C080830895E4ECF0E010828BB18F738BB9C6
S11312D085B18F79806285B9808183608083089528
S11312E080919301833049F128F48130C1F0823038
S11312F091F10895853029F008F449C08630C9F188
S11313000895E4ECF0E0108285B18F7985B988B155
S11313108F73806488B98081806380830895E4EC4E
S1131320F0E0108288B18F7388B985B18F798062BB
S113133085B98081806380830895E4ECF0E01082B5
S11313408BB18F738BB985B18F79806285B98081B8
S1131350836080830895E4ECF0E0108285B18F7996
S113136085B98BB18F7380648BB9808183608083EE
S11313700895E4ECF0E0108288B18F7388B98BB1E2
S11313808F7380648BB980818C6080830895E4ECD2
S1131390F0E010828BB18F738BB988B18F73806446
S11313A088B980818C60808308951F920F920FB654
S11313B00F9211242F933F934F935F936F937F93D7
S11313C08F939F93AF93BF93EF93FF930E948600F5
S11313D00E94F4080E9493000E94D90220E030E2A7
S11313E04AEF54E40E94770C882334F080919201F0
S11313F00E9432038093CF00FF91EF91BF91AF9190
S11314009F918F917F916F915F914F913F912F9118
S11314100F900FBE0F901F9018951F920F920FB64A
S11314200F9211242F933F934F935F936F937F9366
S11314308F939F93AF93BF93EF93FF938091780023
S1131440809394018091790080939201811103C06B
S113145081E08093320180913201882399F00E94C7
S1131460D90220E030E04AEF54E40E94DE0A181664
S11314705CF05C9A809192010E9432038093CF00C9
S11314805C9802C01092CF00EAE7F0E080818064AB
S11314908083FF91EF91BF91AF919F918F917F9145
S11314A06F915F914F913F912F910F900FBE0F90CD
S11314B01F9018955058BB27AA270E94720A0C94B3
S11314C0250C0E94170C38F00E941E0C20F039F4F1
S11314D09F3F19F426F40C94140C0EF4E095E7FBEA
S11314E00C94E50BE92F0E94360C58F3BA176207E7
S11314F073078407950720F079F4A6F50C94700C13
S11315000EF4E0950B2EBA2FA02D0B01B90190011A
S11315100C01CA01A0011124FF27591B99F0593F5E
S113152050F4503E68F11A16F040A22F232F342FA6
S11315304427585FF3CF469537952795A795F040F4
S11315405395C9F77EF41F16BA0B620B730B840B09
S1131550BAF09150A1F0FF0FBB1F661F771F881FC1
S1131560C2F70EC0BA0F621F731F841F48F4879519
S113157077956795B795F7959E3F08F0B0CF93950B
S1131580880F08F09927EE0F9795879508950E9484
S1131590580C90F09F3748F4911116F40C94710C88
S11315A060E070E080E89FE3089526F01B16611D5B
S11315B0711D811D0C94EB0B0C94060C0E94C10B45
S11315C008F481E008950E94F70A0C94250C0E9407
S11315D01E0C58F00E94170C40F029F45F3F29F0CC
S11315E00C94E50B51110C94710C0C94140C0E9486
S11315F0360C68F39923B1F3552391F3951B550BDE
S1131600BB27AA2762177307840738F09F5F5F4FD1
S1131610220F331F441FAA1FA9F335D00E2E3AF010
S1131620E0E832D091505040E695001CCAF72BD028
S1131630FE2F29D0660F771F881FBB1F2617370779
S11316404807AB07B0E809F0BB0B802DBF01FF27AB
S113165093585F4F3AF09E3F510578F00C94E50B98
S11316600C94710C5F3FE4F3983ED4F38695779520
S11316706795B795F7959F5FC9F7880F911D969564
S1131680879597F90895E1E0660F771F881FBB1FC0
S1131690621773078407BA0720F0621B730B840B6D
S11316A0BA0BEE1F88F7E09508950E943E0C88F06F
S11316B09F5798F0B92F9927B751B0F0E1F0660F12
S11316C0771F881F991F1AF0BA95C9F714C0B13053
S11316D091F00E94700CB1E008950C94700C672F87
S11316E0782F8827B85F39F0B93FCCF38695779582
S11316F06795B395D9F73EF490958095709561956B
S11317007F4F8F4F9F4F0895E89409C097FB3EF495
S113171090958095709561957F4F8F4F9F4F99233A
S1131720A9F0F92F96E9BB279395F69587957795B8
S11317306795B795F111F8CFFAF4BB0F11F460FF78
S11317401BC06F5F7F4F8F4F9F4F16C0882311F0D0
S113175096E911C0772321F09EE8872F762F05C0E4
S1131760662371F096E8862F70E060E02AF09A957F
S1131770660F771F881FDAF7880F9695879597F974
S11317800895990F0008550FAA0BE0E8FEEF16160E
S11317901706E807F907C0F012161306E407F50761
S11317A098F0621B730B840B950B39F40A2661F0D5
S11317B0232B242B252B21F408950A2609F4A14078
S11317C0A6958FEF811D811D089597F99F6780E885
S11317D070E060E00895882371F4772321F0985035
S11317E0872B762F07C0662311F499270DC09051DB
S11317F0862B70E060E02AF09A95660F771F881FA9
S1131800DAF7880F9695879597F908959F3F31F0F9
S1131810915020F4879577956795B795880F911D1A
S11318209695879597F908959FEF80EC0895002485
S11318300A941616170618060906089500240A9431
S113184012161306140605060895092E0394000CB7
S113185011F4882352F0BB0F40F4BF2B11F460FF46
S113186004C06F5F7F4F8F4F9F4F089557FD90586F
S1131870440F551F59F05F3F71F04795880F97FB50
S1131880991F61F09F3F79F087950895121613060A
S11318901406551FF2CF4695F1DF08C01616170639
S11318A01806991FF1CF869571056105089408956E
S11318B00E943E0CA0F0BEE7B91788F4BB279F38FE
S11318C060F41616B11D672F782F8827985FF7CF1D
S11318D0869577956795B11D93959639C8F30895C4
S11318E0E894BB2766277727CB0197F908950E94D0
S11318F0C10B08F48FEF08950E948F0C0C94250CF3
S11319000E94170C38F00E941E0C20F0952311F051
S11319100C94E50B0C94140C11240C94710C0E947F
S1131920360C70F3959FC1F3950F50E0551F629FDD
S1131930F001729FBB27F00DB11D639FAA27F00D24
S1131940B11DAA1F649F6627B00DA11D661F829F4B
S11319502227B00DA11D621F739FB00DA11D621F30
S1131960839FA00D611D221F749F3327A00D611D4D
S1131970231F849F600D211D822F762F6A2F11242F
S11319809F5750409AF0F1F088234AF0EE0FFF1F62
S1131990BB1F661F771F881F91505040A9F79E3FB9
S11319A0510580F00C94E50B0C94710C5F3FE4F34B
S11319B0983ED4F3869577956795B795F795E7950F
S11319C09F5FC1F7FE2B880F911D9695879597F918
S11319D00895052E97FB1EF400940E94000D57FDF8
S11319E007D00E94170D07FC03D04EF40C94000D91
S11319F050954095309521953F4F4F4F5F4F089537
S1131A0090958095709561957F4F8F4F9F4F089566
S1131A10A29FB001B39FC001A39F700D811D11242B
S1131A20911DB29F700D811D1124911D0895A1E295
S1131A301A2EAA1BBB1BFD010DC0AA1FBB1FEE1F44
S1131A40FF1FA217B307E407F50720F0A21BB30B8F
S1131A50E40BF50B661F771F881F991F1A9469F70B
S1131A6060957095809590959B01AC01BD01CF0167
S1131A700895AEE0B0E0EFE3FDE00C94FA0F0D89B9
S1131A801E8986E08C831A8309838FEF9FE79E83E8
S1131A908D83AE01475E5F4F6F89788DCE010196CD
S1131AA00E945B0DEF81F885E00FF11F10822E96E6
S1131AB0E4E00C941610ABE0B0E0E1E6FDE00C9439
S1131AC0EC0F6C017B018A01FC0117821682838171
S1131AD081FFCCC1CE0101963C01F6019381F7014F
S1131AE093FD859193FF81917F01882309F4BAC105
S1131AF0853239F493FD859193FF81917F0185327D
S1131B0029F4B60190E00E94520FE7CF912C212CCA
S1131B10312CFFE1F315D8F08B3279F038F48032B0
S1131B2079F08332A1F4232D20611DC08D3261F040
S1131B30803369F4232D216016C0832D8260382EF2
S1131B40E32DE4603E2E2AC0F32DF8601DC037FC5F
S1131B502DC020ED280F2A3040F08E32B9F436FC27
S1131B6081C1232D2064322E19C036FE06C08AE0BE
S1131B70989E200D1124922E11C0EAE02E9E200D75
S1131B801124222EF32DF0623F2E08C08C3621F44E
S1131B90832D8068382E02C0883641F4F70193FD06
S1131BA0859193FF81917F018111B3CF982F9F7D00
S1131BB09554933028F40C5F1F4F9FE399830DC015
S1131BC0833631F0833771F0833509F059C021C071
S1131BD0F801808189830E5F1F4F88248394912CA0
S1131BE0530113C02801F2E04F0E511CF801A080EC
S1131BF0B18036FE03C0692D70E002C06FEF7FEF45
S1131C00C5010E94470F4C018201F32DFF773F2E3F
S1131C1016C0280122E0420E511CF801A080B180B8
S1131C2036FE03C0692D70E002C06FEF7FEFC5017F
S1131C300E943C0F4C01F32DF0683F2E820133FCCF
S1131C401BC0822D90E088169906B0F4B60180E29C
S1131C5090E00E94520F2A94F4CFF50137FC85914D
S1131C6037FE81915F01B60190E00E94520F21106E
S1131C702A9421E0821A91088114910471F7E8C032
S1131C80843611F0893641F5F80137FE07C06081CA
S1131C907181828193810C5F1F4F08C060817181C3
S1131CA0072E000C880B990B0E5F1F4FF32DFF7648
S1131CB03F2E97FF09C090958095709561957F4F51
S1131CC08F4F9F4FF0683F2E2AE030E0A3010E941F
S1131CD08E0F882E861845C0853731F4232D2F7E2C
S1131CE0B22E2AE030E025C0932D997FB92E8F368D
S1131CF0C1F018F4883579F0B5C0803719F0883709
S1131D0021F0B0C0E92FE061BE2EB4FE0DC0FB2D62
S1131D10F460BF2E09C034FE0AC0292F2660B22EFB
S1131D2006C028E030E005C020E130E002C020E138
S1131D3032E0F801B7FE07C060817181828193812E
S1131D400C5F1F4F06C06081718180E090E00E5FE0
S1131D501F4FA3010E948E0F882E8618FB2DFF773C
S1131D603F2E36FE0DC0232D2E7FA22E891458F44B
S1131D7034FE0BC032FC09C0832D8E7EA82E05C014
S1131D80B82CA32C03C0B82C01C0B92CA4FE0FC0DE
S1131D90FE01E80DF11D8081803321F49A2D997E96
S1131DA0A92E09C0A2FE06C0B394B39404C08A2D20
S1131DB0867809F0B394A3FC11C0A0FE06C0B21447
S1131DC088F4280C922C9B180EC0B21460F4B6014F
S1131DD080E290E00E94520FB394F7CFB21418F44B
S1131DE02B1802C0982C212CA4FE10C0B60180E34D
S1131DF090E00E94520FA2FE17C0A1FC03C088E726
S1131E0090E002C088E590E0B6010CC08A2D867887
S1131E1059F0A1FE02C08BE201C080E2A7FC8DE272
S1131E20B60190E00E94520F891438F4B60180E3A1
S1131E3090E00E94520F9A94F7CF8A94F301E80D30
S1131E40F11D8081B60190E00E94520F8110F5CF00
S1131E50222009F442CEB60180E290E00E94520FA3
S1131E602A94F6CFF6018681978102C08FEF9FEF07
S1131E702B96E2E10C940810FC010590615070402F
S1131E800110D8F7809590958E0F9F1F0895FC013F
S1131E906150704001900110D8F7809590958E0F95
S1131EA09F1F08950F931F93CF93DF93FB0123810B
S1131EB021FD03C08FEF9FEF2CC022FF16C0468187
S1131EC05781248135814217530744F4A081B1819D
S1131ED09D012F5F3F4F318320838C93268137816F
S1131EE02F5F3F4F3783268314C08B01EC01FB0126
S1131EF00084F185E02D0995892BE1F6D801169629
S1131F008D919C911797019617969C938E93169793
S1131F10CE01DF91CF911F910F910895FA01AA2765
S1131F20283051F1203181F1E8946F936E7F6E5F18
S1131F307F4F8F4F9F4FAF4FB1E03ED0B4E03CD0C6
S1131F40670F781F891F9A1FA11D680F791F8A1FA9
S1131F50911DA11D6A0F711D811D911DA11D20D010
S1131F6009F468943F912AE0269F11243019305DCA
S1131F703193DEF6CF010895462F4770405D4193BB
S1131F80B3E00FD0C9F7F6CF462F4F70405D4A3308
S1131F9018F0495D31FD4052419302D0A9F7EACFD0
S1131FA0B4E0A6959795879577956795BA95C9F7FF
S1131FB000976105710508959B01AC010A2E0694F2
S1131FC05795479537952795BA95C9F7620F731FAB
S1131FD0841F951FA01D08952F923F924F925F92E8
S1131FE06F927F928F929F92AF92BF92CF92DF9225
S1131FF0EF92FF920F931F93CF93DF93CDB7DEB78A
S1132000CA1BDB0B0FB6F894DEBF0FBECDBF09941D
S11320102A88398848885F846E847D848C849B8474
S1132020AA84B984C884DF80EE80FD800C811B8182
S1132030AA81B981CE0FD11D0FB6F894DEBF0FBEB1
S10D2040CDBFED010895F894FFCF21
S113204ACDCC4C3E0000803F0300040080BB14E466
S113205A0C012020202000256400416B6B753A0096
S10F206A2500552F6D006B6D2F680000E1
S9030130CB
