:100000000C9456000C94A4080C9473000C94730088
:100010000C9473000C9473000C9473000C94730094
:100020000C9473000C947C080C9473000C94730073
:100030000C9473000C9473000C9473000C94730074
:100040000C9473000C9473000C9473000C94730064
:100050000C94BE020C940F050C9473000C94730066
:100060000C9473000C94CB040C9473000C947300E8
:100070000C9473000C94B8080C9473000C947300E7
:100080000C94DE060C94F9060C9473000C94730027
:100090000C9473000C9473000C9473000C94730014
:1000A0000C9473000C9473000C94730011241FBE05
:1000B000CFEFDAE0DEBFCDBF11E0A0E0B1E0E4E9D0
:1000C000FDE102C005900D92A632B107D9F721E0FB
:1000D000A6E2B1E001C01D92A437B207E1F70E9489
:1000E0006E060C94C80E0C940000E1E8F0E08081EC
:1000F0008160808380818260808380818B7F808328
:10010000EFE6F0E0808181608083089510924301E2
:10011000E4E8F0E08081918190934501809344016F
:100120001182108208958F929F92AF92BF92CF92C8
:10013000DF92EF92FF92809143018823E9F01092C1
:1001400045011092440110922F011092300110923B
:100150003101109232011092540110925501109207
:1001600056011092570110924C0110924D011092BD
:100170004E0110924F01B6C080914401909145010B
:100180004A9730F489E190E09093450180934401CF
:1001900080914401909145018C389C4330F08CE86B
:1001A0009CE3909345018093440120914401309158
:1001B000450180910A0190910B01289FB001299F70
:1001C000700D389F700D112480E090E00E94380A75
:1001D00060934C0170934D0180934E0190934F01B9
:1001E00060914C0170914D0180914E0190914F01B1
:1001F00020E030E048EC52E40E94970960934C0103
:1002000070934D0180934E0190934F0180904C016B
:1002100090904D01A0904E01B0904F016091080167
:1002200070910901072E000C880B990B0E943A0A65
:100230006B017C0120E030E040EC50E4C501B401EA
:100240000E94300B9B01AC01C701B6010E94300B2C
:100250006093500170935101809352019093530128
:100260006091500170915101809152019091530120
:1002700020E030E040E251E40E9497096093500191
:10028000709351018093520190935301209150013A
:1002900030915101409152015091530160E070E062
:1002A0008AE794E40E949709609354017093550182
:1002B00080935601909357016091540170915501BC
:1002C000809156019091570120E030E040E752E4E0
:1002D0000E94300B60932F017093300180933101A5
:1002E00090933201FF90EF90DF90CF90BF90AF904E
:1002F0009F908F9008958F929F92AF92BF92CF92CE
:10030000DF92EF92FF9280914301882329F11092AE
:10031000450110924401109235011092360110925D
:1003200037011092380110922F0110923001109273
:100330003101109232011092540110925501109225
:1003400056011092570110924C0110924D011092DB
:100350004E0110924F0186C060912F0170913001C3
:1003600080913101909132010E94090A7093340109
:100370006093330160915401709155018091560151
:10038000909157018090000190900101A09002018E
:10039000B0900301C0900401D0900501E0900601E7
:1003A000F0900701A50194010E94300B23EC35EF7A
:1003B00048E450E40E94300BA70196010E9497097F
:1003C00026E636E646E650E40E94300B609346018E
:1003D0007093470180934801909349012091540103
:1003E000309155014091560150915701C501B4011A
:1003F0000E94300B23EC35EF48E450E40E94300BB0
:10040000A70196010E94970926E636E646E650E4E3
:100410000E94300B6093460170934701809348011E
:100420009093490160914601709147018091480184
:10043000909149010E947B096093350170933601C8
:1004400080933701909338016091350170913601A6
:1004500080913701909138010E94090A70934B01F5
:1004600060934A01FF90EF90DF90CF90BF90AF90E4
:100470009F908F900895CF93DF93C9E3D1E085E0FB
:10048000EEE0F1E0DE0101900D928A95E1F78BE854
:100490000E94F905CE010E943206809133019091AD
:1004A00034019F938F9383E191E09F938F93DF9328
:1004B000CF930E94DE0B8AE80E94F905CE010E94CC
:1004C00032060F900F900F900F900F900F90DF91CA
:1004D000CF910895CF93DF93C9E3D1E085E0EEE0BB
:1004E000F1E0DE0101900D928A95E1F78BEC0E941C
:1004F000F905CE010E94320680914A0190914B018C
:100500009F938F9383E191E09F938F93DF93CF939A
:100510000E94DE0B8AEC0E94F905CE010E94320691
:100520000F900F900F900F900F900F90DF91CF9141
:10053000089510922F011092300110923101109203
:10054000320110923501109236011092370110924B
:1005500038010895CF9360912F01709130018091FF
:10056000310190913201C1E020E030E0A9010E9408
:1005700092098111C0E08C2FCF9108951F920F92A4
:100580000FB60F9211248F9381E080934301109254
:1005900045011092440110923501109236011092DB
:1005A00037011092380110924B0110924A011092BB
:1005B0002F011092300110923101109232011092ED
:1005C000340110923301109254011092550110928F
:1005D00056011092570110924C0110924D01109249
:1005E0004E0110924F018F910F900FBE0F901F90F0
:1005F0001895A0E0B0E0BC01CD0160547C498109B0
:10060000910920EA30E040E050E00E949D0B822FEB
:1006100090E008958F929F92AF92BF92CF92DF9217
:10062000EF92FF921F93CF93DF93182F60912F01CA
:1006300070913001809131019091320120E030E4DD
:100640004CE955E40E942B0B882364F080E090E491
:10065000ACE9B5E480932F0190933001A093310170
:10066000B093320160912F0170913001809131017E
:100670009091320120E030E044ED52E40E9497096D
:100680006B017C010E949004EC010E94A904C03817
:100690008BEBD80721F485B1805885B916C020E0CE
:1006A00030E040E252E4C701B6010E942B0B8823E0
:1006B00064F0C13E8BEAD80740F40F2EC12CD12C38
:1006C000F0E2EF2EF2E4FF2EF02D60912F017091F9
:1006D0003001809131019091320120E030E0A90198
:1006E0000E949209811103C0153108F068C09E0173
:1006F00040E050E060E87BEB80E090E00E949D0BE2
:10070000CA01B9010E943A0A4B015C0120E030E0C5
:1007100040EA50E4C701B6010E94300B9B01AC01D6
:10072000C501B4010E94300B0E94090AC62F70E077
:1007300080E090E00E943A0A6B017C0120E030E00A
:1007400047E553E40E942B0B882364F420E030E05B
:1007500040E252E4C701B6010E94920918161CF04B
:10076000C8E201C0C7EDE12EF12C6C2F70E0CB0187
:1007700088968E159F051CF418E21C0F21C0072EC9
:10078000000C880B990B0E943A0A20E030E040E20E
:1007900052E40E940E094B015C01B701FF0C880B6B
:1007A000990B0E943A0AA50194010E94920988239C
:1007B0003CF4C501B4010E94090A162F01C018E2D9
:1007C000812FDF91CF911F91FF90EF90DF90CF901D
:1007D000BF90AF909F908F9008951F928F9383E169
:1007E00091E09F938F9388E591E09F938F930E9470
:1007F000DE0B80EC0E94F90588E591E00E9432064C
:100800000F900F900F900F900F900F9008951092EF
:10081000CD0087E68093CC00A9ECB0E08C9180619C
:100820008C938C9180688C938C9188608C93EAEC8B
:10083000F0E080818F7B808380818F7780838081CF
:100840008F7E80838081806280838081877F8083A8
:100850008081826080838081846080838C918B7FA3
:100860008C9380818083089584B58F7B84BD84B50B
:100870008F7784BD84B58E7F84BD84B58D7F84BD24
:1008800085B5877F85BD85B58E7F85BD85B58D7F17
:1008900085BD85B5846085BD84E687BDEEE6F0E064
:1008A0008081826080830895E6E6F1E08081809314
:1008B0006501818190E090936401809363012281BE
:1008C0008091630190916401922B909364018093D5
:1008D0006301838190E09093270180932601248116
:1008E0008091260190912701922B9093270180936C
:1008F00026010895AEE5B1E08C91E6E6F1E0808353
:1009000011968C911197818312968C911297828304
:1009100013968C911397838314968C9184830895F6
:10092000809126019091270180349C4960F080914C
:10093000260190912701813C9A4D40F48091260137
:1009400090912701089580E89BEB089580E89BEB48
:1009500008958091630190916401803F9A4060F016
:100960008091630190916401893D9E4040F48091A3
:10097000630190916401089584EE9CE0089584EEF3
:100980009CE0089580916501813A18F48091650199
:10099000089584E108951F920F920FB60F921124CB
:1009A0002F933F934F935F936F937F938F939F9377
:1009B000AF93BF93EF93FF9380912A01813021F48D
:1009C00080912801853020F4809129018823B1F09D
:1009D0001092280116BCE0912901F0E08091CE0030
:1009E000E25AFE4F808380912901843011F40E94E5
:1009F0007A04809129018F5F80932901FF91EF9103
:100A0000BF91AF919F918F917F916F915F914F9126
:100A10003F912F910F900FBE0F901F9018951F922E
:100A20000F920FB60F9211242F933F934F935F9322
:100A30006F937F938F939F93AF93BF93EF93FF93A6
:100A400016BC81E080932A0110922901809128012F
:100A50008F5F80932801823011F40E9454048091AA
:100A600028018B3F18F08AEF80932801FF91EF91C6
:100A7000BF91AF919F918F917F916F915F914F91B6
:100A80003F912F910F900FBE0F901F9018950097D8
:100A900069F020E030E0EFE9FFE03197F1F700C0C6
:100AA00000002F5F3F4F82179307A9F70895899A97
:100AB00085E090E00E944705899885E090E00E94DB
:100AC0004705089582E390E00E9447058998289899
:100AD00081B38F7381BB81B3806381BB0E94570553
:100AE00081B38F7381BB81B3806381BB0E94570543
:100AF00081B38F7381BB81B3806381BB0E94570533
:100B000081B38F7281BB8D9A0E94570581B38F721A
:100B100081BB8D9A0E9457058F9A81B38F7881BBD4
:100B20000E94570581B38F7081BB0E9457058F9A31
:100B300081B38F7881BB0E94570581B38F7081BBD1
:100B40000E94570581B38F7181BB8C9A0E94570513
:100B500081B38F7081BB0E94570581B38F7381BBB6
:100B600081B3806381BB0E94570581B38F7081BBC5
:100B70000E94570581B3806F81BB0E94570508957D
:100B8000CF93C82F289A882314F48F9A01C08F9886
:100B9000C6FF02C08E9A01C08E98C5FF02C08D9A12
:100BA00001C08D98C4FF02C08C9A01C08C980E942D
:100BB000570581E090E00E944705C3FF02C08F9A6D
:100BC00001C08F98C2FF02C08E9A01C08E98C1FFEB
:100BD00002C08D9A01C08D98C0FF02C08C9A01C0DE
:100BE0008C980E94570581E090E00E944705CF91C4
:100BF0000895CF93C82F2898882314F48F9A01C0A2
:100C00008F98C6FF02C08E9A01C08E98C5FF02C0A1
:100C10008D9A01C08D98C4FF02C08C9A01C08C9837
:100C20000E94570581E090E00E944705C3FF02C083
:100C30008F9A01C08F98C2FF02C08E9A01C08E9811
:100C4000C1FF02C08D9A01C08D98C0FF02C08C9A6E
:100C500001C08C980E94570581E090E00E944705F2
:100C6000CF910895CF93DF93EC018881882331F0F1
:100C700021960E94C00589918111FBCFDF91CF9110
:100C8000089580E80E94F90586E191E00E9432060D
:100C90008FE80E94F9058CE191E00E9432068FEC0A
:100CA0000E94F90580E291E00E9432060895E1E990
:100CB000F0E0808181608083808182608083808198
:100CC0008B7F8083E1E7F0E080818260808384EC29
:100CD00099E090939900809398000895E1E6F0E000
:100CE00080E88083108285B7806885BF85B780687B
:100CF00085BF3F9A3E9A269A259A579A569A2198E6
:100D00002298239829982A982B985098589A249892
:100D10002C9A6E9A76988098209A819A879A869AC9
:100D2000859A849A5A9A549A279A0E9444070E9454
:100D300003070E9461070E9475000E9407040E9439
:100D400034040E9457060E9462058CE00E94F90557
:100D50000E94950778940E9441062FEF87EA91E65A
:100D6000215080409040E1F700C000000E949902AD
:100D700010922C0180912C018A30E0F30E949004A3
:100D800090936E0180936D010E947B0180916D01B3
:100D900090916E010E94F90280932B010E94ED0355
:100DA0000E94C20490E090936C0180936B010E94BA
:100DB0003B020E946A0210922C01DCCF1F920F921C
:100DC0000FB60F9211248F931092950010929400F9
:100DD00080912C01893110F010922C0180912C010E
:100DE0008F5F80932C018F910F900FBE0F901F90FB
:100DF00018951F920F920FB60F9211240F900FBEED
:100E00000F901F901895CF93DF93E1ECF0E0808175
:100E10008E7F808380818D7F8083808184608083CA
:100E20008081877F8083A0ECB0E08C9182608C937E
:100E3000C3ECD0E088818E7F88838881826088833C
:100E40008C9180648C938C918F778C938C91806142
:100E50008C938C918F7D8C93A2ECB0E08C9184600C
:100E60008C938C91877F8C9380818F7E808380810F
:100E70008F7D80838FEF8093D1001092C400809388
:100E8000D400DF91CF910895E8E6F0E080818160A1
:100E90008083EBE6F0E080818260808380818460E3
:100EA0008083808188608083808180618083E9E69F
:100EB000F0E080818160808380818D7F8083E89AEB
:100EC0000895ECE7F0E080818064808380818F77F3
:100ED000808380818062808380818E7F8083808117
:100EE0008D7F808380818B7F80838081877F8083DB
:100EF00080818F7E8083EBE7F0E080818F7D80832F
:100F0000EAE7F0E080818068808380818860808368
:100F100080818E7F808380818260808380818460F5
:100F20008083808180648083089583B18E708695EC
:100F3000809372010E94AA02882349F01C9904C080
:100F400081E080930C0108C010920C016DC080916B
:100F50000C01882309F468C080917201833049F143
:100F600028F48130C1F0823091F15BC0853029F0E6
:100F700008F449C08630C9F154C0E4ECF0E01082B6
:100F800085B18F7985B98BB18F7380648BB980817E
:100F9000836080830895E4ECF0E0108288B18F7361
:100FA00088B98BB18F7380648BB980818C608083AA
:100FB0000895E4ECF0E010828BB18F738BB988B1A7
:100FC0008F73806488B980818C6080830895E4EC9D
:100FD000F0E0108285B18F7985B988B18F73806414
:100FE00088B98081806380830895E4ECF0E010820A
:100FF00088B18F7388B985B18F79806285B9808116
:10100000806380830895E4ECF0E010828BB18F73ED
:101010008BB985B18F79806285B980818360808347
:1010200008951092C400089580917201833049F1AF
:1010300028F48130C1F0823091F15BC0853029F015
:1010400008F449C08630C9F154C0E4ECF0E01082E5
:1010500085B18F7985B988B18F73806488B98081B3
:10106000806380830895E4ECF0E0108288B18F7390
:1010700088B985B18F79806285B9808180638083EA
:101080000895E4ECF0E010828BB18F738BB985B1D9
:101090008F79806285B98081836080830895E4ECD4
:1010A000F0E0108285B18F7985B98BB18F73806440
:1010B0008BB98081836080830895E4ECF0E0108236
:1010C00088B18F7388B98BB18F7380648BB980813D
:1010D0008C6080830895E4ECF0E010828BB18F7314
:1010E0008BB988B18F73806488B980818C6080836C
:1010F00008951092C40008951F920F920FB60F9298
:1011000011242F933F934F935F936F937F938F930C
:101110009F93AF93BF93EF93FF930E9495070E9415
:1011200086000E949300FF91EF91BF91AF919F9134
:101130008F917F916F915F914F913F912F910F9080
:101140000FBE0F901F9018951F920F920FB60F921F
:1011500011248F93489B04C081E080930D0102C04D
:1011600010920D018F910F900FBE0F901F90189548
:101170001F920F920FB60F9211242F933F934F930C
:101180005F936F937F938F939F93AF93BF93CF930F
:10119000DF93EF93FF9380917800809373018091A8
:1011A00079008A3F18F48093710103C08AEF80931D
:1011B000710180912D018431B0F010922D01CFEC9E
:1011C000D0E0688160932E01809171010E940A0332
:1011D0008883888180937001811108C09BB180E170
:1011E00089278BB903C08F5F80932D01EAE7F0E078
:1011F000808180648083FF91EF91DF91CF91BF91D7
:10120000AF919F918F917F916F915F914F913F919E
:101210002F910F900FBE0F901F9018955058BB271D
:10122000AA270E9426090C94D90A0E94CB0A38F0FA
:101230000E94D20A20F039F49F3F19F426F40C944E
:10124000C80A0EF4E095E7FB0C94990AE92F0E9476
:10125000EA0A58F3BA17620773078407950720F064
:1012600079F4A6F50C94240B0EF4E0950B2EBA2F0E
:10127000A02D0B01B90190010C01CA01A00111249C
:10128000FF27591B99F0593F50F4503E68F11A1648
:10129000F040A22F232F342F4427585FF3CF4695D9
:1012A00037952795A795F0405395C9F77EF41F16FB
:1012B000BA0B620B730B840BBAF09150A1F0FF0FC5
:1012C000BB1F661F771F881FC2F70EC0BA0F621FB1
:1012D000731F841F48F4879577956795B795F795A1
:1012E0009E3F08F0B0CF9395880F08F09927EE0F36
:1012F0009795879508950E940C0B90F09F3748F4BE
:10130000911116F40C94250B60E070E080E89FE3E7
:10131000089526F01B16611D711D811D0C949F0AF6
:101320000C94BA0A0E94750A08F481E008950E949C
:10133000AB090C94D90A0E94D20A58F00E94CB0A39
:1013400040F029F45F3F29F00C94990A51110C9454
:10135000250B0C94C80A0E94EA0A68F39923B1F39A
:10136000552391F3951B550BBB27AA2762177307CB
:10137000840738F09F5F5F4F220F331F441FAA1F5F
:10138000A9F335D00E2E3AF0E0E832D0915050401B
:10139000E695001CCAF72BD0FE2F29D0660F771FC9
:1013A000881FBB1F261737074807AB07B0E809F0AF
:1013B000BB0B802DBF01FF2793585F4F3AF09E3F34
:1013C000510578F00C94990A0C94250B5F3FE4F3D7
:1013D000983ED4F3869577956795B795F7959F5F77
:1013E000C9F7880F911D9695879597F90895E1E0C3
:1013F000660F771F881FBB1F621773078407BA0722
:1014000020F0621B730B840BBA0BEE1F88F7E0957C
:1014100008950E94F20A88F09F5798F0B92F9927F3
:10142000B751B0F0E1F0660F771F881F991F1AF0CF
:10143000BA95C9F714C0B13091F00E94240BB1E005
:1014400008950C94240B672F782F8827B85F39F004
:10145000B93FCCF3869577956795B395D9F73EF468
:1014600090958095709561957F4F8F4F9F4F089510
:10147000E89409C097FB3EF490958095709561952E
:101480007F4F8F4F9F4F9923A9F0F92F96E9BB27E4
:101490009395F695879577956795B795F111F8CF60
:1014A000FAF4BB0F11F460FF1BC06F5F7F4F8F4FCB
:1014B0009F4F16C0882311F096E911C0772321F0C1
:1014C0009EE8872F762F05C0662371F096E8862F59
:1014D00070E060E02AF09A95660F771F881FDAF7B0
:1014E000880F9695879597F90895990F0008550FDD
:1014F000AA0BE0E8FEEF16161706E807F907C0F09A
:1015000012161306E407F50798F0621B730B840BA1
:10151000950B39F40A2661F0232B242B252B21F47B
:1015200008950A2609F4A140A6958FEF811D811D1B
:10153000089597F99F6780E870E060E00895882338
:1015400071F4772321F09850872B762F07C06623FC
:1015500011F499270DC09051862B70E060E02AF0BD
:101560009A95660F771F881FDAF7880F96958795EB
:1015700097F908959F3F31F0915020F48795779522
:101580006795B795880F911D9695879597F908955A
:101590009FEF80EC089500240A941616170618068B
:1015A0000906089500240A94121613061406050667
:1015B0000895092E0394000C11F4882352F0BB0FF8
:1015C00040F4BF2B11F460FF04C06F5F7F4F8F4F5B
:1015D0009F4F089557FD9058440F551F59F05F3F96
:1015E00071F04795880F97FB991F61F09F3F79F045
:1015F00087950895121613061406551FF2CF4695C7
:10160000F1DF08C0161617061806991FF1CF869548
:1016100071056105089408950E94F20AA0F0BEE7E2
:10162000B91788F4BB279F3860F41616B11D672FD1
:10163000782F8827985FF7CF869577956795B11DA6
:1016400093959639C8F30895E894BB2766277727C2
:10165000CB0197F908950E94750A08F48FEF089559
:101660000E94430B0C94D90A0E94CB0A38F00E94C6
:10167000D20A20F0952311F00C94990A0C94C80A10
:1016800011240C94250B0E94EA0A70F3959FC1F374
:10169000950F50E0551F629FF001729FBB27F00D20
:1016A000B11D639FAA27F00DB11DAA1F649F662775
:1016B000B00DA11D661F829F2227B00DA11D621FC4
:1016C000739FB00DA11D621F839FA00D611D221F7E
:1016D000749F3327A00D611D231F849F600D211D62
:1016E000822F762F6A2F11249F5750409AF0F1F0E5
:1016F00088234AF0EE0FFF1FBB1F661F771F881F4E
:1017000091505040A9F79E3F510580F00C94990AE2
:101710000C94250B5F3FE4F3983ED4F386957795C0
:101720006795B795F795E7959F5FC1F7FE2B880FF3
:10173000911D9695879597F90895052E97FB1EF4B0
:1017400000940E94B40B57FD07D00E94BC0B07FC0D
:1017500003D04EF40C94B40B5095409530952195E0
:101760003F4F4F4F5F4F08959095809570956195CD
:101770007F4F8F4F9F4F0895A1E21A2EAA1BBB1BCC
:10178000FD010DC0AA1FBB1FEE1FFF1FA217B3074D
:10179000E407F50720F0A21BB30BE40BF50B661F63
:1017A000771F881F991F1A9469F760957095809527
:1017B00090959B01AC01BD01CF010895AEE0B0E072
:1017C000E4EEFBE00C949F0E0D891E8986E08C836D
:1017D0001A8309838FEF9FE79E838D83AE01475E57
:1017E0005F4F6F89788DCE0101960E94000CEF81CA
:1017F000F885E00FF11F10822E96E4E00C94BB0EEA
:10180000ABE0B0E0E6E0FCE00C94910E6C017B01F3
:101810008A01FC0117821682838181FFCCC1CE012F
:1018200001963C01F6019381F70193FD859193FFA9
:1018300081917F01882309F4BAC1853239F493FD7F
:10184000859193FF81917F01853229F4B60190E063
:101850000E94F70DE7CF912C212C312CFFE1F315DD
:10186000D8F08B3279F038F4803279F08332A1F4F9
:10187000232D20611DC08D3261F0803369F4232D4A
:10188000216016C0832D8260382EE32DE4603E2E49
:101890002AC0F32DF8601DC037FC2DC020ED280FA5
:1018A0002A3040F08E32B9F436FC81C1232D2064F9
:1018B000322E19C036FE06C08AE0989E200D1124F3
:1018C000922E11C0EAE02E9E200D1124222EF32D1F
:1018D000F0623F2E08C08C3621F4832D8068382EAC
:1018E00002C0883641F4F70193FD859193FF819101
:1018F0007F018111B3CF982F9F7D9554933028F4A9
:101900000C5F1F4F9FE399830DC0833631F08337FF
:1019100071F0833509F059C021C0F80180818983B5
:101920000E5F1F4F88248394912C530113C028010C
:10193000F2E04F0E511CF801A080B18036FE03C0CA
:10194000692D70E002C06FEF7FEFC5010E94EC0DC2
:101950004C018201F32DFF773F2E16C0280122E0B3
:10196000420E511CF801A080B18036FE03C0692DE3
:1019700070E002C06FEF7FEFC5010E94E10D4C01E6
:10198000F32DF0683F2E820133FC1BC0822D90E0C6
:1019900088169906B0F4B60180E290E00E94F70D37
:1019A0002A94F4CFF50137FC859137FE81915F01D0
:1019B000B60190E00E94F70D21102A9421E0821ACE
:1019C00091088114910471F7E8C0843611F08936CA
:1019D00041F5F80137FE07C06081718182819381F2
:1019E0000C5F1F4F08C060817181072E000C880BAF
:1019F000990B0E5F1F4FF32DFF763F2E97FF09C007
:101A000090958095709561957F4F8F4F9F4FF068AF
:101A10003F2E2AE030E0A3010E94330E882E861864
:101A200045C0853731F4232D2F7EB22E2AE030E0D9
:101A300025C0932D997FB92E8F36C1F018F48835C3
:101A400079F0B5C0803719F0883721F0B0C0E92FA0
:101A5000E061BE2EB4FE0DC0FB2DF460BF2E09C0A8
:101A600034FE0AC0292F2660B22E06C028E030E0DE
:101A700005C020E130E002C020E132E0F801B7FE0D
:101A800007C060817181828193810C5F1F4F06C006
:101A90006081718180E090E00E5F1F4FA3010E9482
:101AA000330E882E8618FB2DFF773F2E36FE0DC095
:101AB000232D2E7FA22E891458F434FE0BC032FC45
:101AC00009C0832D8E7EA82E05C0B82CA32C03C080
:101AD000B82C01C0B92CA4FE0FC0FE01E80DF11D09
:101AE0008081803321F49A2D997EA92E09C0A2FE0F
:101AF00006C0B394B39404C08A2D867809F0B394D9
:101B0000A3FC11C0A0FE06C0B21488F4280C922CCD
:101B10009B180EC0B21460F4B60180E290E00E94FF
:101B2000F70DB394F7CFB21418F42B1802C0982C09
:101B3000212CA4FE10C0B60180E390E00E94F70DB6
:101B4000A2FE17C0A1FC03C088E790E002C088E5B0
:101B500090E0B6010CC08A2D867859F0A1FE02C033
:101B60008BE201C080E2A7FC8DE2B60190E00E940A
:101B7000F70D891438F4B60180E390E00E94F70D68
:101B80009A94F7CF8A94F301E80DF11D8081B60194
:101B900090E00E94F70D8110F5CF222009F442CE8B
:101BA000B60180E290E00E94F70D2A94F6CFF6018C
:101BB0008681978102C08FEF9FEF2B96E2E10C9414
:101BC000AD0EFC010590615070400110D8F7809572
:101BD00090958E0F9F1F0895FC01615070400190F9
:101BE0000110D8F7809590958E0F9F1F08950F9341
:101BF0001F93CF93DF93FB01238121FD03C08FEF60
:101C00009FEF2CC022FF16C0468157812481358169
:101C10004217530744F4A081B1819D012F5F3F4FCC
:101C2000318320838C93268137812F5F3F4F378309
:101C3000268314C08B01EC01FB010084F185E02DAB
:101C40000995892BE1F6D80116968D919C911797ED
:101C5000019617969C938E931697CE01DF91CF91A4
:101C60001F910F910895FA01AA27283051F12031D0
:101C700081F1E8946F936E7F6E5F7F4F8F4F9F4F20
:101C8000AF4FB1E03ED0B4E03CD0670F781F891F62
:101C90009A1FA11D680F791F8A1F911DA11D6A0F30
:101CA000711D811D911DA11D20D009F468943F91E3
:101CB0002AE0269F11243019305D3193DEF6CF01E2
:101CC0000895462F4770405D4193B3E00FD0C9F7A8
:101CD000F6CF462F4F70405D4A3318F0495D31FD15
:101CE0004052419302D0A9F7EACFB4E0A695979568
:101CF000879577956795BA95C9F70097610571053E
:101D000008959B01AC010A2E069457954795379587
:101D10002795BA95C9F7620F731F841F951FA01DE1
:101D200008952F923F924F925F926F927F928F927F
:101D30009F92AF92BF92CF92DF92EF92FF920F935A
:101D40001F93CF93DF93CDB7DEB7CA1BDB0B0FB664
:101D5000F894DEBF0FBECDBF09942A883988488821
:101D60005F846E847D848C849B84AA84B984C884B7
:101D7000DF80EE80FD800C811B81AA81B981CE0FAE
:101D8000D11D0FB6F894DEBF0FBECDBFED01089593
:041D9000F894FFCFF5
:101D9400CDCC4C3E0000803F030004000101202014
:101DA400202000256400416B6B753A00552F6D00AF
:061DB4006B6D2F680000BA
:040000050080012A4C
:00000001FF
